{
  "contractName": "BTCSweet",
  "abi": [
    {
      "inputs": [
        {
          "internalType": "uint256",
          "name": "_supply",
          "type": "uint256"
        }
      ],
      "stateMutability": "nonpayable",
      "type": "constructor"
    },
    {
      "anonymous": false,
      "inputs": [
        {
          "indexed": true,
          "internalType": "address",
          "name": "owner",
          "type": "address"
        },
        {
          "indexed": true,
          "internalType": "address",
          "name": "spender",
          "type": "address"
        },
        {
          "indexed": false,
          "internalType": "uint256",
          "name": "value",
          "type": "uint256"
        }
      ],
      "name": "Approval",
      "type": "event"
    },
    {
      "anonymous": false,
      "inputs": [
        {
          "indexed": true,
          "internalType": "address",
          "name": "previousOwner",
          "type": "address"
        },
        {
          "indexed": true,
          "internalType": "address",
          "name": "newOwner",
          "type": "address"
        }
      ],
      "name": "OwnershipTransferred",
      "type": "event"
    },
    {
      "anonymous": false,
      "inputs": [
        {
          "indexed": true,
          "internalType": "address",
          "name": "from",
          "type": "address"
        },
        {
          "indexed": true,
          "internalType": "address",
          "name": "to",
          "type": "address"
        },
        {
          "indexed": false,
          "internalType": "uint256",
          "name": "value",
          "type": "uint256"
        }
      ],
      "name": "Transfer",
      "type": "event"
    },
    {
      "anonymous": false,
      "inputs": [
        {
          "indexed": true,
          "internalType": "address",
          "name": "treasuryAddress",
          "type": "address"
        }
      ],
      "name": "changeAddressTreasury",
      "type": "event"
    },
    {
      "inputs": [
        {
          "internalType": "address",
          "name": "owner",
          "type": "address"
        },
        {
          "internalType": "address",
          "name": "spender",
          "type": "address"
        }
      ],
      "name": "allowance",
      "outputs": [
        {
          "internalType": "uint256",
          "name": "",
          "type": "uint256"
        }
      ],
      "stateMutability": "view",
      "type": "function"
    },
    {
      "inputs": [
        {
          "internalType": "address",
          "name": "spender",
          "type": "address"
        },
        {
          "internalType": "uint256",
          "name": "amount",
          "type": "uint256"
        }
      ],
      "name": "approve",
      "outputs": [
        {
          "internalType": "bool",
          "name": "",
          "type": "bool"
        }
      ],
      "stateMutability": "nonpayable",
      "type": "function"
    },
    {
      "inputs": [
        {
          "internalType": "address",
          "name": "account",
          "type": "address"
        }
      ],
      "name": "balanceOf",
      "outputs": [
        {
          "internalType": "uint256",
          "name": "",
          "type": "uint256"
        }
      ],
      "stateMutability": "view",
      "type": "function"
    },
    {
      "inputs": [],
      "name": "decimals",
      "outputs": [
        {
          "internalType": "uint8",
          "name": "",
          "type": "uint8"
        }
      ],
      "stateMutability": "view",
      "type": "function"
    },
    {
      "inputs": [
        {
          "internalType": "address",
          "name": "spender",
          "type": "address"
        },
        {
          "internalType": "uint256",
          "name": "subtractedValue",
          "type": "uint256"
        }
      ],
      "name": "decreaseAllowance",
      "outputs": [
        {
          "internalType": "bool",
          "name": "",
          "type": "bool"
        }
      ],
      "stateMutability": "nonpayable",
      "type": "function"
    },
    {
      "inputs": [
        {
          "internalType": "address",
          "name": "spender",
          "type": "address"
        },
        {
          "internalType": "uint256",
          "name": "addedValue",
          "type": "uint256"
        }
      ],
      "name": "increaseAllowance",
      "outputs": [
        {
          "internalType": "bool",
          "name": "",
          "type": "bool"
        }
      ],
      "stateMutability": "nonpayable",
      "type": "function"
    },
    {
      "inputs": [],
      "name": "name",
      "outputs": [
        {
          "internalType": "string",
          "name": "",
          "type": "string"
        }
      ],
      "stateMutability": "view",
      "type": "function"
    },
    {
      "inputs": [],
      "name": "numberBTC",
      "outputs": [
        {
          "internalType": "uint256",
          "name": "",
          "type": "uint256"
        }
      ],
      "stateMutability": "view",
      "type": "function"
    },
    {
      "inputs": [],
      "name": "owner",
      "outputs": [
        {
          "internalType": "address",
          "name": "",
          "type": "address"
        }
      ],
      "stateMutability": "view",
      "type": "function"
    },
    {
      "inputs": [],
      "name": "renounceOwnership",
      "outputs": [],
      "stateMutability": "nonpayable",
      "type": "function"
    },
    {
      "inputs": [],
      "name": "symbol",
      "outputs": [
        {
          "internalType": "string",
          "name": "",
          "type": "string"
        }
      ],
      "stateMutability": "view",
      "type": "function"
    },
    {
      "inputs": [],
      "name": "totalSupply",
      "outputs": [
        {
          "internalType": "uint256",
          "name": "",
          "type": "uint256"
        }
      ],
      "stateMutability": "view",
      "type": "function"
    },
    {
      "inputs": [
        {
          "internalType": "address",
          "name": "to",
          "type": "address"
        },
        {
          "internalType": "uint256",
          "name": "amount",
          "type": "uint256"
        }
      ],
      "name": "transfer",
      "outputs": [
        {
          "internalType": "bool",
          "name": "",
          "type": "bool"
        }
      ],
      "stateMutability": "nonpayable",
      "type": "function"
    },
    {
      "inputs": [
        {
          "internalType": "address",
          "name": "from",
          "type": "address"
        },
        {
          "internalType": "address",
          "name": "to",
          "type": "address"
        },
        {
          "internalType": "uint256",
          "name": "amount",
          "type": "uint256"
        }
      ],
      "name": "transferFrom",
      "outputs": [
        {
          "internalType": "bool",
          "name": "",
          "type": "bool"
        }
      ],
      "stateMutability": "nonpayable",
      "type": "function"
    },
    {
      "inputs": [
        {
          "internalType": "address",
          "name": "newOwner",
          "type": "address"
        }
      ],
      "name": "transferOwnership",
      "outputs": [],
      "stateMutability": "nonpayable",
      "type": "function"
    },
    {
      "inputs": [],
      "name": "treasuryAddress",
      "outputs": [
        {
          "internalType": "address",
          "name": "",
          "type": "address"
        }
      ],
      "stateMutability": "view",
      "type": "function"
    },
    {
      "inputs": [
        {
          "internalType": "address",
          "name": "_treasuryAddress",
          "type": "address"
        }
      ],
      "name": "setAddressTreasury",
      "outputs": [],
      "stateMutability": "nonpayable",
      "type": "function"
    },
    {
      "inputs": [
        {
          "internalType": "uint256",
          "name": "_numberBTC",
          "type": "uint256"
        }
      ],
      "name": "setNumberBTC",
      "outputs": [
        {
          "internalType": "bool",
          "name": "",
          "type": "bool"
        }
      ],
      "stateMutability": "nonpayable",
      "type": "function"
    },
    {
      "inputs": [],
      "name": "getAddressTreasury",
      "outputs": [
        {
          "internalType": "address",
          "name": "",
          "type": "address"
        }
      ],
      "stateMutability": "view",
      "type": "function"
    },
    {
      "inputs": [],
      "name": "getNumberBTC",
      "outputs": [
        {
          "internalType": "uint256",
          "name": "",
          "type": "uint256"
        }
      ],
      "stateMutability": "view",
      "type": "function"
    },
    {
      "inputs": [
        {
          "internalType": "uint256",
          "name": "amount",
          "type": "uint256"
        }
      ],
      "name": "mintToContract",
      "outputs": [],
      "stateMutability": "nonpayable",
      "type": "function"
    }
  ],
  "bytecode": "0x60806040523480156200001157600080fd5b5060405162002a8238038062002a8283398181016040528101906200003791906200045b565b6040518060400160405280600881526020017f42544353776565740000000000000000000000000000000000000000000000008152506040518060400160405280600481526020017f42544353000000000000000000000000000000000000000000000000000000008152508160059080519060200190620000bb92919062000394565b508060069080519060200190620000d492919062000394565b505050620000f7620000eb6200013a60201b60201c565b6200014260201b60201c565b62000133336200010c6200020860201b60201c565b600a6200011a9190620005e2565b836200012791906200071f565b6200021160201b60201c565b5062000852565b600033905090565b6000600760009054906101000a900473ffffffffffffffffffffffffffffffffffffffff16905081600760006101000a81548173ffffffffffffffffffffffffffffffffffffffff021916908373ffffffffffffffffffffffffffffffffffffffff1602179055508173ffffffffffffffffffffffffffffffffffffffff168173ffffffffffffffffffffffffffffffffffffffff167f8be0079c531659141344cd1fd0a4f28419497f9722a3daafe3b4186f6b6457e060405160405180910390a35050565b60006012905090565b600073ffffffffffffffffffffffffffffffffffffffff168273ffffffffffffffffffffffffffffffffffffffff16141562000284576040517f08c379a00000000000000000000000000000000000000000000000000000000081526004016200027b90620004da565b60405180910390fd5b62000298600083836200038a60201b60201c565b8060026000828254620002ac91906200052a565b92505081905550806000808473ffffffffffffffffffffffffffffffffffffffff1673ffffffffffffffffffffffffffffffffffffffff16815260200190815260200160002060008282546200030391906200052a565b925050819055508173ffffffffffffffffffffffffffffffffffffffff16600073ffffffffffffffffffffffffffffffffffffffff167fddf252ad1be2c89b69c2b068fc378daa952ba7f163c4a11628f55a4df523b3ef836040516200036a9190620004fc565b60405180910390a362000386600083836200038f60201b60201c565b5050565b505050565b505050565b828054620003a29062000797565b90600052602060002090601f016020900481019282620003c6576000855562000412565b82601f10620003e157805160ff191683800117855562000412565b8280016001018555821562000412579182015b8281111562000411578251825591602001919060010190620003f4565b5b50905062000421919062000425565b5090565b5b808211156200044057600081600090555060010162000426565b5090565b600081519050620004558162000838565b92915050565b6000602082840312156200046e57600080fd5b60006200047e8482850162000444565b91505092915050565b600062000496601f8362000519565b91507f45524332303a206d696e7420746f20746865207a65726f2061646472657373006000830152602082019050919050565b620004d48162000780565b82525050565b60006020820190508181036000830152620004f58162000487565b9050919050565b6000602082019050620005136000830184620004c9565b92915050565b600082825260208201905092915050565b6000620005378262000780565b9150620005448362000780565b9250827fffffffffffffffffffffffffffffffffffffffffffffffffffffffffffffffff038211156200057c576200057b620007cd565b5b828201905092915050565b6000808291508390505b6001851115620005d957808604811115620005b157620005b0620007cd565b5b6001851615620005c15780820291505b8081029050620005d1856200082b565b945062000591565b94509492505050565b6000620005ef8262000780565b9150620005fc836200078a565b92506200062b7fffffffffffffffffffffffffffffffffffffffffffffffffffffffffffffffff848462000633565b905092915050565b60008262000645576001905062000718565b8162000655576000905062000718565b81600181146200066e57600281146200067957620006af565b600191505062000718565b60ff8411156200068e576200068d620007cd565b5b8360020a915084821115620006a857620006a7620007cd565b5b5062000718565b5060208310610133831016604e8410600b8410161715620006e95782820a905083811115620006e357620006e2620007cd565b5b62000718565b620006f8848484600162000587565b92509050818404811115620007125762000711620007cd565b5b81810290505b9392505050565b60006200072c8262000780565b9150620007398362000780565b9250817fffffffffffffffffffffffffffffffffffffffffffffffffffffffffffffffff0483118215151615620007755762000774620007cd565b5b828202905092915050565b6000819050919050565b600060ff82169050919050565b60006002820490506001821680620007b057607f821691505b60208210811415620007c757620007c6620007fc565b5b50919050565b7f4e487b7100000000000000000000000000000000000000000000000000000000600052601160045260246000fd5b7f4e487b7100000000000000000000000000000000000000000000000000000000600052602260045260246000fd5b60008160011c9050919050565b620008438162000780565b81146200084f57600080fd5b50565b61222080620008626000396000f3fe608060405234801561001057600080fd5b50600436106101375760003560e01c80638c5112e7116100b8578063a9059cbb1161007c578063a9059cbb14610354578063c0a398c114610384578063c4083b14146103a0578063c5f956af146103be578063dd62ed3e146103dc578063f2fde38b1461040c57610137565b80638c5112e71461029c5780638da5cb5b146102b857806395d89b41146102d6578063983f6353146102f4578063a457c2d71461032457610137565b8063313ce567116100ff578063313ce567146101f657806339509351146102145780634b51bbe21461024457806370a0823114610262578063715018a61461029257610137565b806306fdde031461013c578063095ea7b31461015a57806318160ddd1461018a57806323b872dd146101a85780632ed193d2146101d8575b600080fd5b610144610428565b6040516101519190611d5b565b60405180910390f35b610174600480360381019061016f91906117f5565b6104ba565b6040516101819190611d40565b60405180910390f35b6101926104dd565b60405161019f9190611efd565b60405180910390f35b6101c260048036038101906101bd91906117a6565b6104e7565b6040516101cf9190611d40565b60405180910390f35b6101e0610516565b6040516101ed9190611efd565b60405180910390f35b6101fe610520565b60405161020b9190611f18565b60405180910390f35b61022e600480360381019061022991906117f5565b610529565b60405161023b9190611d40565b60405180910390f35b61024c6105d3565b6040516102599190611efd565b60405180910390f35b61027c60048036038101906102779190611741565b6105d9565b6040516102899190611efd565b60405180910390f35b61029a610621565b005b6102b660048036038101906102b19190611741565b6106a9565b005b6102c06107ac565b6040516102cd9190611d25565b60405180910390f35b6102de6107d6565b6040516102eb9190611d5b565b60405180910390f35b61030e60048036038101906103099190611831565b610868565b60405161031b9190611d40565b60405180910390f35b61033e600480360381019061033991906117f5565b6108f6565b60405161034b9190611d40565b60405180910390f35b61036e600480360381019061036991906117f5565b6109e0565b60405161037b9190611d40565b60405180910390f35b61039e60048036038101906103999190611831565b610a03565b005b6103a8610abb565b6040516103b59190611d25565b60405180910390f35b6103c6610ae5565b6040516103d39190611d25565b60405180910390f35b6103f660048036038101906103f1919061176a565b610b0b565b6040516104039190611efd565b60405180910390f35b61042660048036038101906104219190611741565b610b92565b005b606060058054610437906120ec565b80601f0160208091040260200160405190810160405280929190818152602001828054610463906120ec565b80156104b05780601f10610485576101008083540402835291602001916104b0565b820191906000526020600020905b81548152906001019060200180831161049357829003601f168201915b5050505050905090565b6000806104c5610c8a565b90506104d2818585610c92565b600191505092915050565b6000600254905090565b6000806104f2610c8a565b90506104ff858285610e5d565b61050a858585610ee9565b60019150509392505050565b6000600454905090565b60006012905090565b600080610534610c8a565b90506105c8818585600160008673ffffffffffffffffffffffffffffffffffffffff1673ffffffffffffffffffffffffffffffffffffffff16815260200190815260200160002060008973ffffffffffffffffffffffffffffffffffffffff1673ffffffffffffffffffffffffffffffffffffffff168152602001908152602001600020546105c39190611f4f565b610c92565b600191505092915050565b60045481565b60008060008373ffffffffffffffffffffffffffffffffffffffff1673ffffffffffffffffffffffffffffffffffffffff168152602001908152602001600020549050919050565b610629610c8a565b73ffffffffffffffffffffffffffffffffffffffff166106476107ac565b73ffffffffffffffffffffffffffffffffffffffff161461069d576040517f08c379a000000000000000000000000000000000000000000000000000000000815260040161069490611e3d565b60405180910390fd5b6106a760006112e4565b565b6106b1610c8a565b73ffffffffffffffffffffffffffffffffffffffff166106cf6107ac565b73ffffffffffffffffffffffffffffffffffffffff1614610725576040517f08c379a000000000000000000000000000000000000000000000000000000000815260040161071c90611e3d565b60405180910390fd5b80600360006101000a81548173ffffffffffffffffffffffffffffffffffffffff021916908373ffffffffffffffffffffffffffffffffffffffff1602179055508073ffffffffffffffffffffffffffffffffffffffff167f18e91a59fc31cf59d9f76b8b2ce178fad9e8aac4e1a764a08a4793aaa702e64b60405160405180910390a250565b6000600760009054906101000a900473ffffffffffffffffffffffffffffffffffffffff16905090565b6060600680546107e5906120ec565b80601f0160208091040260200160405190810160405280929190818152602001828054610811906120ec565b801561085e5780601f106108335761010080835404028352916020019161085e565b820191906000526020600020905b81548152906001019060200180831161084157829003601f168201915b5050505050905090565b6000610872610c8a565b73ffffffffffffffffffffffffffffffffffffffff166108906107ac565b73ffffffffffffffffffffffffffffffffffffffff16146108e6576040517f08c379a00000000000000000000000000000000000000000000000000000000081526004016108dd90611e3d565b60405180910390fd5b8160048190555060019050919050565b600080610901610c8a565b90506000600160008373ffffffffffffffffffffffffffffffffffffffff1673ffffffffffffffffffffffffffffffffffffffff16815260200190815260200160002060008673ffffffffffffffffffffffffffffffffffffffff1673ffffffffffffffffffffffffffffffffffffffff168152602001908152602001600020549050838110156109c7576040517f08c379a00000000000000000000000000000000000000000000000000000000081526004016109be90611ebd565b60405180910390fd5b6109d48286868403610c92565b60019250505092915050565b6000806109eb610c8a565b90506109f8818585610ee9565b600191505092915050565b610a0b610c8a565b73ffffffffffffffffffffffffffffffffffffffff16610a296107ac565b73ffffffffffffffffffffffffffffffffffffffff1614610a7f576040517f08c379a0000000000000000000000000000000000000000000000000000000008152600401610a7690611e3d565b60405180910390fd5b610ab8600360009054906101000a900473ffffffffffffffffffffffffffffffffffffffff1682600454610ab39190611fd6565b6113aa565b50565b6000600360009054906101000a900473ffffffffffffffffffffffffffffffffffffffff16905090565b600360009054906101000a900473ffffffffffffffffffffffffffffffffffffffff1681565b6000600160008473ffffffffffffffffffffffffffffffffffffffff1673ffffffffffffffffffffffffffffffffffffffff16815260200190815260200160002060008373ffffffffffffffffffffffffffffffffffffffff1673ffffffffffffffffffffffffffffffffffffffff16815260200190815260200160002054905092915050565b610b9a610c8a565b73ffffffffffffffffffffffffffffffffffffffff16610bb86107ac565b73ffffffffffffffffffffffffffffffffffffffff1614610c0e576040517f08c379a0000000000000000000000000000000000000000000000000000000008152600401610c0590611e3d565b60405180910390fd5b600073ffffffffffffffffffffffffffffffffffffffff168173ffffffffffffffffffffffffffffffffffffffff161415610c7e576040517f08c379a0000000000000000000000000000000000000000000000000000000008152600401610c7590611dbd565b60405180910390fd5b610c87816112e4565b50565b600033905090565b600073ffffffffffffffffffffffffffffffffffffffff168373ffffffffffffffffffffffffffffffffffffffff161415610d02576040517f08c379a0000000000000000000000000000000000000000000000000000000008152600401610cf990611e9d565b60405180910390fd5b600073ffffffffffffffffffffffffffffffffffffffff168273ffffffffffffffffffffffffffffffffffffffff161415610d72576040517f08c379a0000000000000000000000000000000000000000000000000000000008152600401610d6990611ddd565b60405180910390fd5b80600160008573ffffffffffffffffffffffffffffffffffffffff1673ffffffffffffffffffffffffffffffffffffffff16815260200190815260200160002060008473ffffffffffffffffffffffffffffffffffffffff1673ffffffffffffffffffffffffffffffffffffffff168152602001908152602001600020819055508173ffffffffffffffffffffffffffffffffffffffff168373ffffffffffffffffffffffffffffffffffffffff167f8c5be1e5ebec7d5bd14f71427d1e84f3dd0314c0f7b2291e5b200ac8c7c3b92583604051610e509190611efd565b60405180910390a3505050565b6000610e698484610b0b565b90507fffffffffffffffffffffffffffffffffffffffffffffffffffffffffffffffff8114610ee35781811015610ed5576040517f08c379a0000000000000000000000000000000000000000000000000000000008152600401610ecc90611dfd565b60405180910390fd5b610ee28484848403610c92565b5b50505050565b600073ffffffffffffffffffffffffffffffffffffffff168373ffffffffffffffffffffffffffffffffffffffff161415610f59576040517f08c379a0000000000000000000000000000000000000000000000000000000008152600401610f5090611e7d565b60405180910390fd5b600073ffffffffffffffffffffffffffffffffffffffff168273ffffffffffffffffffffffffffffffffffffffff161415610fc9576040517f08c379a0000000000000000000000000000000000000000000000000000000008152600401610fc090611d7d565b60405180910390fd5b610fd483838361150a565b60008060008573ffffffffffffffffffffffffffffffffffffffff1673ffffffffffffffffffffffffffffffffffffffff1681526020019081526020016000205490508181101561105a576040517f08c379a000000000000000000000000000000000000000000000000000000000815260040161105190611e1d565b60405180910390fd5b8181036000808673ffffffffffffffffffffffffffffffffffffffff1673ffffffffffffffffffffffffffffffffffffffff168152602001908152602001600020819055506110c660646110b860618561150f90919063ffffffff16565b61152590919063ffffffff16565b6000808573ffffffffffffffffffffffffffffffffffffffff1673ffffffffffffffffffffffffffffffffffffffff16815260200190815260200160002060008282546111139190611f4f565b92505081905550611141606461113360028561150f90919063ffffffff16565b61152590919063ffffffff16565b600080600360009054906101000a900473ffffffffffffffffffffffffffffffffffffffff1673ffffffffffffffffffffffffffffffffffffffff1673ffffffffffffffffffffffffffffffffffffffff16815260200190815260200160002060008282546111b09190611f4f565b925050819055506111e7846111e260646111d460018761150f90919063ffffffff16565b61152590919063ffffffff16565b61153b565b8273ffffffffffffffffffffffffffffffffffffffff168473ffffffffffffffffffffffffffffffffffffffff167fddf252ad1be2c89b69c2b068fc378daa952ba7f163c4a11628f55a4df523b3ef846040516112449190611efd565b60405180910390a3600360009054906101000a900473ffffffffffffffffffffffffffffffffffffffff1673ffffffffffffffffffffffffffffffffffffffff168473ffffffffffffffffffffffffffffffffffffffff167fddf252ad1be2c89b69c2b068fc378daa952ba7f163c4a11628f55a4df523b3ef846040516112cb9190611efd565b60405180910390a36112de848484611712565b50505050565b6000600760009054906101000a900473ffffffffffffffffffffffffffffffffffffffff16905081600760006101000a81548173ffffffffffffffffffffffffffffffffffffffff021916908373ffffffffffffffffffffffffffffffffffffffff1602179055508173ffffffffffffffffffffffffffffffffffffffff168173ffffffffffffffffffffffffffffffffffffffff167f8be0079c531659141344cd1fd0a4f28419497f9722a3daafe3b4186f6b6457e060405160405180910390a35050565b600073ffffffffffffffffffffffffffffffffffffffff168273ffffffffffffffffffffffffffffffffffffffff16141561141a576040517f08c379a000000000000000000000000000000000000000000000000000000000815260040161141190611edd565b60405180910390fd5b6114266000838361150a565b80600260008282546114389190611f4f565b92505081905550806000808473ffffffffffffffffffffffffffffffffffffffff1673ffffffffffffffffffffffffffffffffffffffff168152602001908152602001600020600082825461148d9190611f4f565b925050819055508173ffffffffffffffffffffffffffffffffffffffff16600073ffffffffffffffffffffffffffffffffffffffff167fddf252ad1be2c89b69c2b068fc378daa952ba7f163c4a11628f55a4df523b3ef836040516114f29190611efd565b60405180910390a361150660008383611712565b5050565b505050565b6000818361151d9190611fd6565b905092915050565b600081836115339190611fa5565b905092915050565b600073ffffffffffffffffffffffffffffffffffffffff168273ffffffffffffffffffffffffffffffffffffffff1614156115ab576040517f08c379a00000000000000000000000000000000000000000000000000000000081526004016115a290611e5d565b60405180910390fd5b6115b78260008361150a565b60008060008473ffffffffffffffffffffffffffffffffffffffff1673ffffffffffffffffffffffffffffffffffffffff1681526020019081526020016000205490508181101561163d576040517f08c379a000000000000000000000000000000000000000000000000000000000815260040161163490611d9d565b60405180910390fd5b8181036000808573ffffffffffffffffffffffffffffffffffffffff1673ffffffffffffffffffffffffffffffffffffffff1681526020019081526020016000208190555081600260008282546116949190612030565b92505081905550600073ffffffffffffffffffffffffffffffffffffffff168373ffffffffffffffffffffffffffffffffffffffff167fddf252ad1be2c89b69c2b068fc378daa952ba7f163c4a11628f55a4df523b3ef846040516116f99190611efd565b60405180910390a361170d83600084611712565b505050565b505050565b600081359050611726816121bc565b92915050565b60008135905061173b816121d3565b92915050565b60006020828403121561175357600080fd5b600061176184828501611717565b91505092915050565b6000806040838503121561177d57600080fd5b600061178b85828601611717565b925050602061179c85828601611717565b9150509250929050565b6000806000606084860312156117bb57600080fd5b60006117c986828701611717565b93505060206117da86828701611717565b92505060406117eb8682870161172c565b9150509250925092565b6000806040838503121561180857600080fd5b600061181685828601611717565b92505060206118278582860161172c565b9150509250929050565b60006020828403121561184357600080fd5b60006118518482850161172c565b91505092915050565b61186381612064565b82525050565b61187281612076565b82525050565b600061188382611f33565b61188d8185611f3e565b935061189d8185602086016120b9565b6118a6816121ab565b840191505092915050565b60006118be602383611f3e565b91507f45524332303a207472616e7366657220746f20746865207a65726f206164647260008301527f65737300000000000000000000000000000000000000000000000000000000006020830152604082019050919050565b6000611924602283611f3e565b91507f45524332303a206275726e20616d6f756e7420657863656564732062616c616e60008301527f63650000000000000000000000000000000000000000000000000000000000006020830152604082019050919050565b600061198a602683611f3e565b91507f4f776e61626c653a206e6577206f776e657220697320746865207a65726f206160008301527f64647265737300000000000000000000000000000000000000000000000000006020830152604082019050919050565b60006119f0602283611f3e565b91507f45524332303a20617070726f766520746f20746865207a65726f20616464726560008301527f73730000000000000000000000000000000000000000000000000000000000006020830152604082019050919050565b6000611a56601d83611f3e565b91507f45524332303a20696e73756666696369656e7420616c6c6f77616e63650000006000830152602082019050919050565b6000611a96602683611f3e565b91507f45524332303a207472616e7366657220616d6f756e742065786365656473206260008301527f616c616e636500000000000000000000000000000000000000000000000000006020830152604082019050919050565b6000611afc602083611f3e565b91507f4f776e61626c653a2063616c6c6572206973206e6f7420746865206f776e65726000830152602082019050919050565b6000611b3c602183611f3e565b91507f45524332303a206275726e2066726f6d20746865207a65726f2061646472657360008301527f73000000000000000000000000000000000000000000000000000000000000006020830152604082019050919050565b6000611ba2602583611f3e565b91507f45524332303a207472616e736665722066726f6d20746865207a65726f20616460008301527f64726573730000000000000000000000000000000000000000000000000000006020830152604082019050919050565b6000611c08602483611f3e565b91507f45524332303a20617070726f76652066726f6d20746865207a65726f2061646460008301527f72657373000000000000000000000000000000000000000000000000000000006020830152604082019050919050565b6000611c6e602583611f3e565b91507f45524332303a2064656372656173656420616c6c6f77616e63652062656c6f7760008301527f207a65726f0000000000000000000000000000000000000000000000000000006020830152604082019050919050565b6000611cd4601f83611f3e565b91507f45524332303a206d696e7420746f20746865207a65726f2061646472657373006000830152602082019050919050565b611d10816120a2565b82525050565b611d1f816120ac565b82525050565b6000602082019050611d3a600083018461185a565b92915050565b6000602082019050611d556000830184611869565b92915050565b60006020820190508181036000830152611d758184611878565b905092915050565b60006020820190508181036000830152611d96816118b1565b9050919050565b60006020820190508181036000830152611db681611917565b9050919050565b60006020820190508181036000830152611dd68161197d565b9050919050565b60006020820190508181036000830152611df6816119e3565b9050919050565b60006020820190508181036000830152611e1681611a49565b9050919050565b60006020820190508181036000830152611e3681611a89565b9050919050565b60006020820190508181036000830152611e5681611aef565b9050919050565b60006020820190508181036000830152611e7681611b2f565b9050919050565b60006020820190508181036000830152611e9681611b95565b9050919050565b60006020820190508181036000830152611eb681611bfb565b9050919050565b60006020820190508181036000830152611ed681611c61565b9050919050565b60006020820190508181036000830152611ef681611cc7565b9050919050565b6000602082019050611f126000830184611d07565b92915050565b6000602082019050611f2d6000830184611d16565b92915050565b600081519050919050565b600082825260208201905092915050565b6000611f5a826120a2565b9150611f65836120a2565b9250827fffffffffffffffffffffffffffffffffffffffffffffffffffffffffffffffff03821115611f9a57611f9961211e565b5b828201905092915050565b6000611fb0826120a2565b9150611fbb836120a2565b925082611fcb57611fca61214d565b5b828204905092915050565b6000611fe1826120a2565b9150611fec836120a2565b9250817fffffffffffffffffffffffffffffffffffffffffffffffffffffffffffffffff04831182151516156120255761202461211e565b5b828202905092915050565b600061203b826120a2565b9150612046836120a2565b9250828210156120595761205861211e565b5b828203905092915050565b600061206f82612082565b9050919050565b60008115159050919050565b600073ffffffffffffffffffffffffffffffffffffffff82169050919050565b6000819050919050565b600060ff82169050919050565b60005b838110156120d75780820151818401526020810190506120bc565b838111156120e6576000848401525b50505050565b6000600282049050600182168061210457607f821691505b602082108114156121185761211761217c565b5b50919050565b7f4e487b7100000000000000000000000000000000000000000000000000000000600052601160045260246000fd5b7f4e487b7100000000000000000000000000000000000000000000000000000000600052601260045260246000fd5b7f4e487b7100000000000000000000000000000000000000000000000000000000600052602260045260246000fd5b6000601f19601f8301169050919050565b6121c581612064565b81146121d057600080fd5b50565b6121dc816120a2565b81146121e757600080fd5b5056fea26469706673582212200896cf791dc377156efa68fe42c6519cbc815d500e6cba05e769144454e44caf64736f6c63430008000033",
  "immutableReferences": {},
  "source": "// SPDX-License-Identifier: MIT\n\npragma solidity ^0.8.0;\n\nimport \"./ERC20.sol\";\nimport \"@openzeppelin/contracts/utils/Context.sol\";\nimport \"@openzeppelin/contracts/access/Ownable.sol\";\n\ncontract BTCSweet is ERC20, Ownable {\n    event changeAddressTreasury(address indexed treasuryAddress);\n\n    constructor(uint256 _supply) ERC20(\"BTCSweet\", \"BTCS\") {\n        _mint(msg.sender, _supply * (10**decimals()));\n    }\n\n    function setAddressTreasury(address _treasuryAddress) public onlyOwner {\n        treasuryAddress = _treasuryAddress;\n        emit changeAddressTreasury(_treasuryAddress);\n    }\n\n    function setNumberBTC(uint256 _numberBTC) public onlyOwner returns (bool) {\n        numberBTC = _numberBTC;\n        return true;\n    }\n\n    function getAddressTreasury() external view returns (address) {\n        return treasuryAddress;\n    }\n\n    function getNumberBTC() external view returns (uint256) {\n        return numberBTC;\n    }\n\n    function mintToContract(uint256 amount) public onlyOwner {\n        _mint(treasuryAddress, numberBTC * amount);\n    }\n}\n",
  "sourcePath": "/home/biaaaa/Project/candy-contract/contract-token/contracts/BTCSweet.sol",
  "compiler": {
    "name": "solc",
    "version": "0.8.0+commit.c7dfd78e.Emscripten.clang"
  },
  "schemaVersion": "3.4.5",
  "updatedAt": "2022-03-26T13:56:43.298Z",
  "devdoc": {
    "kind": "dev",
    "methods": {
      "allowance(address,address)": {
        "details": "See {IERC20-allowance}."
      },
      "approve(address,uint256)": {
        "details": "See {IERC20-approve}. NOTE: If `amount` is the maximum `uint256`, the allowance is not updated on `transferFrom`. This is semantically equivalent to an infinite approval. Requirements: - `spender` cannot be the zero address."
      },
      "balanceOf(address)": {
        "details": "See {IERC20-balanceOf}."
      },
      "decimals()": {
        "details": "Returns the number of decimals used to get its user representation. For example, if `decimals` equals `2`, a balance of `505` tokens should be displayed to a user as `5.05` (`505 / 10 ** 2`). Tokens usually opt for a value of 18, imitating the relationship between Ether and Wei. This is the value {ERC20} uses, unless this function is overridden; NOTE: This information is only used for _display_ purposes: it in no way affects any of the arithmetic of the contract, including {IERC20-balanceOf} and {IERC20-transfer}."
      },
      "decreaseAllowance(address,uint256)": {
        "details": "Atomically decreases the allowance granted to `spender` by the caller. This is an alternative to {approve} that can be used as a mitigation for problems described in {IERC20-approve}. Emits an {Approval} event indicating the updated allowance. Requirements: - `spender` cannot be the zero address. - `spender` must have allowance for the caller of at least `subtractedValue`."
      },
      "increaseAllowance(address,uint256)": {
        "details": "Atomically increases the allowance granted to `spender` by the caller. This is an alternative to {approve} that can be used as a mitigation for problems described in {IERC20-approve}. Emits an {Approval} event indicating the updated allowance. Requirements: - `spender` cannot be the zero address."
      },
      "name()": {
        "details": "Returns the name of the token."
      },
      "owner()": {
        "details": "Returns the address of the current owner."
      },
      "renounceOwnership()": {
        "details": "Leaves the contract without owner. It will not be possible to call `onlyOwner` functions anymore. Can only be called by the current owner. NOTE: Renouncing ownership will leave the contract without an owner, thereby removing any functionality that is only available to the owner."
      },
      "symbol()": {
        "details": "Returns the symbol of the token, usually a shorter version of the name."
      },
      "totalSupply()": {
        "details": "See {IERC20-totalSupply}."
      },
      "transfer(address,uint256)": {
        "details": "See {IERC20-transfer}. Requirements: - `to` cannot be the zero address. - the caller must have a balance of at least `amount`."
      },
      "transferFrom(address,address,uint256)": {
        "details": "See {IERC20-transferFrom}. Emits an {Approval} event indicating the updated allowance. This is not required by the EIP. See the note at the beginning of {ERC20}. NOTE: Does not update the allowance if the current allowance is the maximum `uint256`. Requirements: - `from` and `to` cannot be the zero address. - `from` must have a balance of at least `amount`. - the caller must have allowance for ``from``'s tokens of at least `amount`."
      },
      "transferOwnership(address)": {
        "details": "Transfers ownership of the contract to a new account (`newOwner`). Can only be called by the current owner."
      }
    },
    "version": 1
  },
  "userdoc": {
    "kind": "user",
    "methods": {},
    "version": 1
  }
}