{
  "contractName": "CheckTime",
  "abi": [
    {
      "inputs": [],
      "name": "DAYS",
      "outputs": [
        {
          "internalType": "uint256",
          "name": "",
          "type": "uint256"
        }
      ],
      "stateMutability": "view",
      "type": "function"
    },
    {
      "inputs": [],
      "name": "MAXLIFE",
      "outputs": [
        {
          "internalType": "uint256",
          "name": "",
          "type": "uint256"
        }
      ],
      "stateMutability": "view",
      "type": "function"
    },
    {
      "inputs": [],
      "name": "TIMEDEFAULT",
      "outputs": [
        {
          "internalType": "uint256",
          "name": "",
          "type": "uint256"
        }
      ],
      "stateMutability": "view",
      "type": "function"
    }
  ],
  "bytecode": "0x610114610053600b82828239805160001a607314610046577f4e487b7100000000000000000000000000000000000000000000000000000000600052600060045260246000fd5b30600052607381538281f3fe730000000000000000000000000000000000000000301460806040526004361060475760003560e01c806355c6476d14604c578063aacaf75e146066578063c549e6b9146080575b600080fd5b6052609a565b604051605d919060bb565b60405180910390f35b606c609f565b6040516077919060bb565b60405180910390f35b608660a7565b6040516091919060bb565b60405180910390f35b600581565b63622e858081565b6201518081565b60b58160d4565b82525050565b600060208201905060ce600083018460ae565b92915050565b600081905091905056fea264697066735822122082456f1831d72ff09cd37a4b4bde98d36e1dd361d8687cdfe58ad3b770a7593f64736f6c63430008000033",
  "immutableReferences": {},
  "source": "// SPDX-License-Identifier: MIT\n\npragma solidity ^0.8.0;\n\nimport \"@openzeppelin/contracts/access/Ownable.sol\";\nimport \"@openzeppelin/contracts/utils/math/SafeMath.sol\";\n\nlibrary CheckTime {\n    using SafeMath for uint256;\n\n    uint256 public constant DAYS = 86400;\n    uint256 public constant MAXLIFE = 5;\n    uint256 public constant TIMEDEFAULT = 1647216000;\n\n    function checkTime(uint256[] memory array) internal pure returns (bool) {\n        uint256 calcuTime;\n        calcuTime = array[array.length - 1].sub(TIMEDEFAULT);\n        if (calcuTime <= DAYS) {\n            return true;\n        } else {\n            return false;\n        }\n    }\n}\n",
  "sourcePath": "/home/biaaaa/Project/candy-contract/contract-token/contracts/libs/CheckTime.sol",
  "compiler": {
    "name": "solc",
    "version": "0.8.0+commit.c7dfd78e.Emscripten.clang"
  },
  "schemaVersion": "3.4.5",
  "updatedAt": "2022-03-15T04:43:12.251Z",
  "devdoc": {
    "kind": "dev",
    "methods": {},
    "version": 1
  },
  "userdoc": {
    "kind": "user",
    "methods": {},
    "version": 1
  }
}