{
  "contractName": "Game",
  "abi": [
    {
      "inputs": [
        {
          "internalType": "address",
          "name": "_treasuryAdmin",
          "type": "address"
        },
        {
          "internalType": "address",
          "name": "_token",
          "type": "address"
        }
      ],
      "stateMutability": "nonpayable",
      "type": "constructor"
    },
    {
      "anonymous": false,
      "inputs": [
        {
          "indexed": true,
          "internalType": "address",
          "name": "previousOwner",
          "type": "address"
        },
        {
          "indexed": true,
          "internalType": "address",
          "name": "newOwner",
          "type": "address"
        }
      ],
      "name": "OwnershipTransferred",
      "type": "event"
    },
    {
      "anonymous": false,
      "inputs": [
        {
          "indexed": true,
          "internalType": "uint256",
          "name": "level",
          "type": "uint256"
        },
        {
          "indexed": false,
          "internalType": "uint256",
          "name": "amount",
          "type": "uint256"
        }
      ],
      "name": "changePointLevel",
      "type": "event"
    },
    {
      "anonymous": false,
      "inputs": [
        {
          "indexed": true,
          "internalType": "uint256",
          "name": "idSkill",
          "type": "uint256"
        },
        {
          "indexed": true,
          "internalType": "string",
          "name": "name",
          "type": "string"
        },
        {
          "indexed": false,
          "internalType": "uint256",
          "name": "price",
          "type": "uint256"
        }
      ],
      "name": "createSkillsEvent",
      "type": "event"
    },
    {
      "anonymous": false,
      "inputs": [
        {
          "indexed": true,
          "internalType": "uint256",
          "name": "idSkill",
          "type": "uint256"
        },
        {
          "indexed": true,
          "internalType": "address",
          "name": "token",
          "type": "address"
        },
        {
          "indexed": false,
          "internalType": "uint256",
          "name": "level",
          "type": "uint256"
        }
      ],
      "name": "playerBuySkills",
      "type": "event"
    },
    {
      "anonymous": false,
      "inputs": [
        {
          "indexed": true,
          "internalType": "uint256",
          "name": "slots",
          "type": "uint256"
        },
        {
          "indexed": false,
          "internalType": "address",
          "name": "token",
          "type": "address"
        }
      ],
      "name": "playerBuySlots",
      "type": "event"
    },
    {
      "anonymous": false,
      "inputs": [
        {
          "indexed": true,
          "internalType": "address",
          "name": "token",
          "type": "address"
        }
      ],
      "name": "setAddressTokenCustomEvent",
      "type": "event"
    },
    {
      "inputs": [
        {
          "internalType": "uint256",
          "name": "",
          "type": "uint256"
        }
      ],
      "name": "SkillGame",
      "outputs": [
        {
          "internalType": "string",
          "name": "name",
          "type": "string"
        },
        {
          "internalType": "uint256",
          "name": "price",
          "type": "uint256"
        },
        {
          "internalType": "uint256",
          "name": "idSkill",
          "type": "uint256"
        }
      ],
      "stateMutability": "view",
      "type": "function"
    },
    {
      "inputs": [],
      "name": "owner",
      "outputs": [
        {
          "internalType": "address",
          "name": "",
          "type": "address"
        }
      ],
      "stateMutability": "view",
      "type": "function"
    },
    {
      "inputs": [],
      "name": "renounceOwnership",
      "outputs": [],
      "stateMutability": "nonpayable",
      "type": "function"
    },
    {
      "inputs": [],
      "name": "token",
      "outputs": [
        {
          "internalType": "contract IERC20",
          "name": "",
          "type": "address"
        }
      ],
      "stateMutability": "view",
      "type": "function"
    },
    {
      "inputs": [
        {
          "internalType": "address",
          "name": "newOwner",
          "type": "address"
        }
      ],
      "name": "transferOwnership",
      "outputs": [],
      "stateMutability": "nonpayable",
      "type": "function"
    },
    {
      "inputs": [],
      "name": "treasuryAdmin",
      "outputs": [
        {
          "internalType": "address",
          "name": "",
          "type": "address"
        }
      ],
      "stateMutability": "view",
      "type": "function"
    },
    {
      "inputs": [],
      "name": "checkBalance",
      "outputs": [
        {
          "internalType": "uint256",
          "name": "",
          "type": "uint256"
        }
      ],
      "stateMutability": "view",
      "type": "function"
    },
    {
      "inputs": [
        {
          "internalType": "uint256",
          "name": "_days",
          "type": "uint256"
        }
      ],
      "name": "checkTimeBuyInDays",
      "outputs": [
        {
          "internalType": "uint256",
          "name": "",
          "type": "uint256"
        }
      ],
      "stateMutability": "view",
      "type": "function"
    },
    {
      "inputs": [
        {
          "internalType": "address",
          "name": "_token",
          "type": "address"
        }
      ],
      "name": "setAddressTokenCustom",
      "outputs": [],
      "stateMutability": "nonpayable",
      "type": "function"
    },
    {
      "inputs": [
        {
          "internalType": "uint256",
          "name": "_idSkill",
          "type": "uint256"
        },
        {
          "internalType": "string",
          "name": "_name",
          "type": "string"
        },
        {
          "internalType": "uint256",
          "name": "_price",
          "type": "uint256"
        }
      ],
      "name": "createSkills",
      "outputs": [],
      "stateMutability": "nonpayable",
      "type": "function"
    },
    {
      "inputs": [
        {
          "internalType": "uint256",
          "name": "_level",
          "type": "uint256"
        },
        {
          "internalType": "uint256",
          "name": "_point",
          "type": "uint256"
        }
      ],
      "name": "setPointLevel",
      "outputs": [
        {
          "internalType": "bool",
          "name": "",
          "type": "bool"
        }
      ],
      "stateMutability": "nonpayable",
      "type": "function"
    },
    {
      "inputs": [
        {
          "internalType": "uint256",
          "name": "_amountSlots",
          "type": "uint256"
        }
      ],
      "name": "buyLifesNative",
      "outputs": [
        {
          "internalType": "bool",
          "name": "",
          "type": "bool"
        }
      ],
      "stateMutability": "payable",
      "type": "function"
    },
    {
      "inputs": [
        {
          "internalType": "uint256",
          "name": "_amountSlots",
          "type": "uint256"
        }
      ],
      "name": "buyLifes",
      "outputs": [
        {
          "internalType": "bool",
          "name": "",
          "type": "bool"
        }
      ],
      "stateMutability": "nonpayable",
      "type": "function"
    },
    {
      "inputs": [
        {
          "internalType": "uint256",
          "name": "_idSkill",
          "type": "uint256"
        },
        {
          "internalType": "uint256",
          "name": "_level",
          "type": "uint256"
        }
      ],
      "name": "buySkillsNative",
      "outputs": [
        {
          "components": [
            {
              "internalType": "string",
              "name": "name",
              "type": "string"
            },
            {
              "internalType": "uint256",
              "name": "price",
              "type": "uint256"
            },
            {
              "internalType": "uint256",
              "name": "idSkill",
              "type": "uint256"
            }
          ],
          "internalType": "struct Game.Skills",
          "name": "skills",
          "type": "tuple"
        }
      ],
      "stateMutability": "payable",
      "type": "function"
    },
    {
      "inputs": [
        {
          "internalType": "uint256",
          "name": "_idSkill",
          "type": "uint256"
        },
        {
          "internalType": "uint256",
          "name": "_level",
          "type": "uint256"
        }
      ],
      "name": "buySkills",
      "outputs": [
        {
          "internalType": "bool",
          "name": "",
          "type": "bool"
        }
      ],
      "stateMutability": "nonpayable",
      "type": "function"
    }
  ],
  "bytecode": "0x60806040526302faf08060035562989680600455600580553480156200002457600080fd5b50604051620028053803806200280583398181016040528101906200004a9190620001d7565b6200006a6200005e620000f460201b60201c565b620000fc60201b60201c565b80600160006101000a81548173ffffffffffffffffffffffffffffffffffffffff021916908373ffffffffffffffffffffffffffffffffffffffff16021790555081600260006101000a81548173ffffffffffffffffffffffffffffffffffffffff021916908373ffffffffffffffffffffffffffffffffffffffff160217905550505062000266565b600033905090565b60008060009054906101000a900473ffffffffffffffffffffffffffffffffffffffff169050816000806101000a81548173ffffffffffffffffffffffffffffffffffffffff021916908373ffffffffffffffffffffffffffffffffffffffff1602179055508173ffffffffffffffffffffffffffffffffffffffff168173ffffffffffffffffffffffffffffffffffffffff167f8be0079c531659141344cd1fd0a4f28419497f9722a3daafe3b4186f6b6457e060405160405180910390a35050565b600081519050620001d1816200024c565b92915050565b60008060408385031215620001eb57600080fd5b6000620001fb85828601620001c0565b92505060206200020e85828601620001c0565b9150509250929050565b600062000225826200022c565b9050919050565b600073ffffffffffffffffffffffffffffffffffffffff82169050919050565b620002578162000218565b81146200026357600080fd5b50565b61258f80620002766000396000f3fe6080604052600436106100e85760003560e01c80639776587e1161008a578063cfec010c11610059578063cfec010c14610302578063df3bd0781461032d578063f2fde38b1461036a578063fc0c546a14610393576100e8565b80639776587e1461023f57806399a11bcf1461027e578063b619abfb146102ae578063c71daccb146102d7576100e8565b8063715018a6116100c6578063715018a6146101a457806371c83467146101bb5780638d1b97b5146101eb5780638da5cb5b14610214576100e8565b8063066f3e9d146100ed57806315b23dd81461012a5780636225263214610167575b600080fd5b3480156100f957600080fd5b50610114600480360381019061010f9190611ab4565b6103be565b6040516101219190612188565b60405180910390f35b34801561013657600080fd5b50610151600480360381019061014c9190611b6d565b610418565b60405161015e9190611ff0565b60405180910390f35b34801561017357600080fd5b5061018e60048036038101906101899190611b6d565b61061f565b60405161019b9190611ff0565b60405180910390f35b3480156101b057600080fd5b506101b96106f7565b005b6101d560048036038101906101d09190611ab4565b61077f565b6040516101e29190611ff0565b60405180910390f35b3480156101f757600080fd5b50610212600480360381019061020d9190611a62565b6109f4565b005b34801561022057600080fd5b50610229610af7565b6040516102369190611f9e565b60405180910390f35b34801561024b57600080fd5b5061026660048036038101906102619190611ab4565b610b20565b60405161027593929190612048565b60405180910390f35b61029860048036038101906102939190611b6d565b610be2565b6040516102a59190612166565b60405180910390f35b3480156102ba57600080fd5b506102d560048036038101906102d09190611b06565b610dde565b005b3480156102e357600080fd5b506102ec610f74565b6040516102f99190612188565b60405180910390f35b34801561030e57600080fd5b50610317611026565b6040516103249190611f9e565b60405180910390f35b34801561033957600080fd5b50610354600480360381019061034f9190611ab4565b61104c565b6040516103619190611ff0565b60405180910390f35b34801561037657600080fd5b50610391600480360381019061038c9190611a62565b611394565b005b34801561039f57600080fd5b506103a861148c565b6040516103b5919061200b565b60405180910390f35b6000600860003373ffffffffffffffffffffffffffffffffffffffff1673ffffffffffffffffffffffffffffffffffffffff1681526020019081526020016000206000838152602001908152602001600020549050919050565b60006007600084815260200190815260200160002060010154600160009054906101000a900473ffffffffffffffffffffffffffffffffffffffff1673ffffffffffffffffffffffffffffffffffffffff166370a08231336040518263ffffffff1660e01b815260040161048c9190611f9e565b60206040518083038186803b1580156104a457600080fd5b505afa1580156104b8573d6000803e3d6000fd5b505050506040513d601f19601f820116820180604052508101906104dc9190611add565b101561051d576040517f08c379a000000000000000000000000000000000000000000000000000000000815260040161051490612146565b60405180910390fd5b6105a433600260009054906101000a900473ffffffffffffffffffffffffffffffffffffffff166007600087815260200190815260200160002060010154600160009054906101000a900473ffffffffffffffffffffffffffffffffffffffff1673ffffffffffffffffffffffffffffffffffffffff166114b2909392919063ffffffff16565b600160009054906101000a900473ffffffffffffffffffffffffffffffffffffffff1673ffffffffffffffffffffffffffffffffffffffff16837f72109bf95e4d7fad7aa55f95683b592f9b0b9b28b3dbe6498d235536fe4db6788460405161060d9190612188565b60405180910390a36001905092915050565b600061062961153b565b73ffffffffffffffffffffffffffffffffffffffff16610647610af7565b73ffffffffffffffffffffffffffffffffffffffff161461069d576040517f08c379a0000000000000000000000000000000000000000000000000000000008152600401610694906120e6565b60405180910390fd5b816006600085815260200190815260200160002081905550827fc79303bac2a912d60f29d6e1aadbf7ff1a1803aa8029dfc9509661333e932d3c836040516106e59190612188565b60405180910390a26001905092915050565b6106ff61153b565b73ffffffffffffffffffffffffffffffffffffffff1661071d610af7565b73ffffffffffffffffffffffffffffffffffffffff1614610773576040517f08c379a000000000000000000000000000000000000000000000000000000000815260040161076a906120e6565b60405180910390fd5b61077d6000611543565b565b6000806107ae620151806107a063622e85804261160790919063ffffffff16565b61161d90919063ffffffff16565b9050600554600860003373ffffffffffffffffffffffffffffffffffffffff1673ffffffffffffffffffffffffffffffffffffffff1681526020019081526020016000206000838152602001908152602001600020541115610845576040517f08c379a000000000000000000000000000000000000000000000000000000000815260040161083c906120c6565b60405180910390fd5b60006108736201518061086563622e85804261160790919063ffffffff16565b61161d90919063ffffffff16565b905061088a6003548561163390919063ffffffff16565b3410156108cc576040517f08c379a00000000000000000000000000000000000000000000000000000000081526004016108c390612146565b60405180910390fd5b600260009054906101000a900473ffffffffffffffffffffffffffffffffffffffff1673ffffffffffffffffffffffffffffffffffffffff166108fc61091d6003548761163390919063ffffffff16565b9081150290604051600060405180830381858888f19350505050158015610948573d6000803e3d6000fd5b5083600860003373ffffffffffffffffffffffffffffffffffffffff1673ffffffffffffffffffffffffffffffffffffffff168152602001908152602001600020600083815260200190815260200160002060008282546109a99190612252565b92505081905550837f2280ccce70be0e85daa85ce2ce2d144c95672d88927b7776dc9eeefe7876d3eb60006040516109e19190611f9e565b60405180910390a2600192505050919050565b6109fc61153b565b73ffffffffffffffffffffffffffffffffffffffff16610a1a610af7565b73ffffffffffffffffffffffffffffffffffffffff1614610a70576040517f08c379a0000000000000000000000000000000000000000000000000000000008152600401610a67906120e6565b60405180910390fd5b80600160006101000a81548173ffffffffffffffffffffffffffffffffffffffff021916908373ffffffffffffffffffffffffffffffffffffffff1602179055508073ffffffffffffffffffffffffffffffffffffffff167f35c880b0ae82690acd0cbb69c97c406d7047d0b840895af05acce831b795d95e60405160405180910390a250565b60008060009054906101000a900473ffffffffffffffffffffffffffffffffffffffff16905090565b60098181548110610b3057600080fd5b9060005260206000209060030201600091509050806000018054610b5390612415565b80601f0160208091040260200160405190810160405280929190818152602001828054610b7f90612415565b8015610bcc5780601f10610ba157610100808354040283529160200191610bcc565b820191906000526020600020905b815481529060010190602001808311610baf57829003601f168201915b5050505050908060010154908060020154905083565b610bea6118e2565b6007600084815260200190815260200160002060010154341015610c43576040517f08c379a0000000000000000000000000000000000000000000000000000000008152600401610c3a90612146565b60405180910390fd5b600260009054906101000a900473ffffffffffffffffffffffffffffffffffffffff1673ffffffffffffffffffffffffffffffffffffffff166108fc60076000868152602001908152602001600020600101549081150290604051600060405180830381858888f19350505050158015610cc1573d6000803e3d6000fd5b50600073ffffffffffffffffffffffffffffffffffffffff16837f72109bf95e4d7fad7aa55f95683b592f9b0b9b28b3dbe6498d235536fe4db67884604051610d0a9190612188565b60405180910390a360076000848152602001908152602001600020604051806060016040529081600082018054610d4090612415565b80601f0160208091040260200160405190810160405280929190818152602001828054610d6c90612415565b8015610db95780601f10610d8e57610100808354040283529160200191610db9565b820191906000526020600020905b815481529060010190602001808311610d9c57829003601f168201915b5050505050815260200160018201548152602001600282015481525050905092915050565b610de661153b565b73ffffffffffffffffffffffffffffffffffffffff16610e04610af7565b73ffffffffffffffffffffffffffffffffffffffff1614610e5a576040517f08c379a0000000000000000000000000000000000000000000000000000000008152600401610e51906120e6565b60405180910390fd5b6000604051806060016040528084815260200183815260200185815250905060098190806001815401808255809150506001900390600052602060002090600302016000909190919091506000820151816000019080519060200190610ec1929190611903565b506020820151816001015560408201518160020155505080600760008681526020019081526020016000206000820151816000019080519060200190610f08929190611903565b50602082015181600101556040820151816002015590505082604051610f2e9190611f87565b6040518091039020847f99dc3cf5060355c3b7f9beb0e29934d07548699b70107b738cec21159e16317584604051610f669190612188565b60405180910390a350505050565b6000600160009054906101000a900473ffffffffffffffffffffffffffffffffffffffff1673ffffffffffffffffffffffffffffffffffffffff166370a08231336040518263ffffffff1660e01b8152600401610fd19190611f9e565b60206040518083038186803b158015610fe957600080fd5b505afa158015610ffd573d6000803e3d6000fd5b505050506040513d601f19601f820116820180604052508101906110219190611add565b905090565b600260009054906101000a900473ffffffffffffffffffffffffffffffffffffffff1681565b60008061107b6201518061106d63622e85804261160790919063ffffffff16565b61161d90919063ffffffff16565b9050600554600860003373ffffffffffffffffffffffffffffffffffffffff1673ffffffffffffffffffffffffffffffffffffffff1681526020019081526020016000206000838152602001908152602001600020541115611112576040517f08c379a0000000000000000000000000000000000000000000000000000000008152600401611109906120c6565b60405180910390fd5b60006111406201518061113263622e85804261160790919063ffffffff16565b61161d90919063ffffffff16565b90506111576003548561163390919063ffffffff16565b600160009054906101000a900473ffffffffffffffffffffffffffffffffffffffff1673ffffffffffffffffffffffffffffffffffffffff166370a08231336040518263ffffffff1660e01b81526004016111b29190611f9e565b60206040518083038186803b1580156111ca57600080fd5b505afa1580156111de573d6000803e3d6000fd5b505050506040513d601f19601f820116820180604052508101906112029190611add565b1015611243576040517f08c379a000000000000000000000000000000000000000000000000000000000815260040161123a90612146565b60405180910390fd5b6112c833600260009054906101000a900473ffffffffffffffffffffffffffffffffffffffff1661127f6003548861163390919063ffffffff16565b600160009054906101000a900473ffffffffffffffffffffffffffffffffffffffff1673ffffffffffffffffffffffffffffffffffffffff166114b2909392919063ffffffff16565b83600860003373ffffffffffffffffffffffffffffffffffffffff1673ffffffffffffffffffffffffffffffffffffffff168152602001908152602001600020600083815260200190815260200160002060008282546113289190612252565b92505081905550837f2280ccce70be0e85daa85ce2ce2d144c95672d88927b7776dc9eeefe7876d3eb600160009054906101000a900473ffffffffffffffffffffffffffffffffffffffff166040516113819190611f9e565b60405180910390a2600192505050919050565b61139c61153b565b73ffffffffffffffffffffffffffffffffffffffff166113ba610af7565b73ffffffffffffffffffffffffffffffffffffffff1614611410576040517f08c379a0000000000000000000000000000000000000000000000000000000008152600401611407906120e6565b60405180910390fd5b600073ffffffffffffffffffffffffffffffffffffffff168173ffffffffffffffffffffffffffffffffffffffff161415611480576040517f08c379a000000000000000000000000000000000000000000000000000000000815260040161147790612086565b60405180910390fd5b61148981611543565b50565b600160009054906101000a900473ffffffffffffffffffffffffffffffffffffffff1681565b611535846323b872dd60e01b8585856040516024016114d393929190611fb9565b604051602081830303815290604052907bffffffffffffffffffffffffffffffffffffffffffffffffffffffff19166020820180517bffffffffffffffffffffffffffffffffffffffffffffffffffffffff8381831617835250505050611649565b50505050565b600033905090565b60008060009054906101000a900473ffffffffffffffffffffffffffffffffffffffff169050816000806101000a81548173ffffffffffffffffffffffffffffffffffffffff021916908373ffffffffffffffffffffffffffffffffffffffff1602179055508173ffffffffffffffffffffffffffffffffffffffff168173ffffffffffffffffffffffffffffffffffffffff167f8be0079c531659141344cd1fd0a4f28419497f9722a3daafe3b4186f6b6457e060405160405180910390a35050565b600081836116159190612333565b905092915050565b6000818361162b91906122a8565b905092915050565b6000818361164191906122d9565b905092915050565b60006116ab826040518060400160405280602081526020017f5361666545524332303a206c6f772d6c6576656c2063616c6c206661696c65648152508573ffffffffffffffffffffffffffffffffffffffff166117109092919063ffffffff16565b905060008151111561170b57808060200190518101906116cb9190611a8b565b61170a576040517f08c379a000000000000000000000000000000000000000000000000000000000815260040161170190612126565b60405180910390fd5b5b505050565b606061171f8484600085611728565b90509392505050565b60608247101561176d576040517f08c379a0000000000000000000000000000000000000000000000000000000008152600401611764906120a6565b60405180910390fd5b6117768561183c565b6117b5576040517f08c379a00000000000000000000000000000000000000000000000000000000081526004016117ac90612106565b60405180910390fd5b6000808673ffffffffffffffffffffffffffffffffffffffff1685876040516117de9190611f70565b60006040518083038185875af1925050503d806000811461181b576040519150601f19603f3d011682016040523d82523d6000602084013e611820565b606091505b509150915061183082828661187b565b92505050949350505050565b6000808273ffffffffffffffffffffffffffffffffffffffff16803b806020016040519081016040528181526000908060200190933c51119050919050565b6060831561188b578290506118db565b60008351111561189e5782518084602001fd5b816040517f08c379a00000000000000000000000000000000000000000000000000000000081526004016118d29190612026565b60405180910390fd5b9392505050565b60405180606001604052806060815260200160008152602001600081525090565b82805461190f90612415565b90600052602060002090601f0160209004810192826119315760008555611978565b82601f1061194a57805160ff1916838001178555611978565b82800160010185558215611978579182015b8281111561197757825182559160200191906001019061195c565b5b5090506119859190611989565b5090565b5b808211156119a257600081600090555060010161198a565b5090565b60006119b96119b4846121d4565b6121a3565b9050828152602081018484840111156119d157600080fd5b6119dc8482856123d3565b509392505050565b6000813590506119f381612514565b92915050565b600081519050611a088161252b565b92915050565b600082601f830112611a1f57600080fd5b8135611a2f8482602086016119a6565b91505092915050565b600081359050611a4781612542565b92915050565b600081519050611a5c81612542565b92915050565b600060208284031215611a7457600080fd5b6000611a82848285016119e4565b91505092915050565b600060208284031215611a9d57600080fd5b6000611aab848285016119f9565b91505092915050565b600060208284031215611ac657600080fd5b6000611ad484828501611a38565b91505092915050565b600060208284031215611aef57600080fd5b6000611afd84828501611a4d565b91505092915050565b600080600060608486031215611b1b57600080fd5b6000611b2986828701611a38565b935050602084013567ffffffffffffffff811115611b4657600080fd5b611b5286828701611a0e565b9250506040611b6386828701611a38565b9150509250925092565b60008060408385031215611b8057600080fd5b6000611b8e85828601611a38565b9250506020611b9f85828601611a38565b9150509250929050565b611bb281612367565b82525050565b611bc181612379565b82525050565b6000611bd282612204565b611bdc818561221a565b9350611bec8185602086016123e2565b80840191505092915050565b611c01816123af565b82525050565b6000611c128261220f565b611c1c8185612225565b9350611c2c8185602086016123e2565b611c3581612503565b840191505092915050565b6000611c4b8261220f565b611c558185612236565b9350611c658185602086016123e2565b611c6e81612503565b840191505092915050565b6000611c848261220f565b611c8e8185612247565b9350611c9e8185602086016123e2565b80840191505092915050565b6000611cb7602683612236565b91507f4f776e61626c653a206e6577206f776e657220697320746865207a65726f206160008301527f64647265737300000000000000000000000000000000000000000000000000006020830152604082019050919050565b6000611d1d602683612236565b91507f416464726573733a20696e73756666696369656e742062616c616e636520666f60008301527f722063616c6c00000000000000000000000000000000000000000000000000006020830152604082019050919050565b6000611d83602483612236565b91507f6578636565642074686520737065636966696564206e756d626572206f66207460008301527f696d6573000000000000000000000000000000000000000000000000000000006020830152604082019050919050565b6000611de9602083612236565b91507f4f776e61626c653a2063616c6c6572206973206e6f7420746865206f776e65726000830152602082019050919050565b6000611e29601d83612236565b91507f416464726573733a2063616c6c20746f206e6f6e2d636f6e74726163740000006000830152602082019050919050565b6000611e69602a83612236565b91507f5361666545524332303a204552433230206f7065726174696f6e20646964206e60008301527f6f742073756363656564000000000000000000000000000000000000000000006020830152604082019050919050565b6000611ecf601683612236565b91507f70656f706c79206e6f742066756e6420746f20627579000000000000000000006000830152602082019050919050565b60006060830160008301518482036000860152611f1f8282611c07565b9150506020830151611f346020860182611f52565b506040830151611f476040860182611f52565b508091505092915050565b611f5b816123a5565b82525050565b611f6a816123a5565b82525050565b6000611f7c8284611bc7565b915081905092915050565b6000611f938284611c79565b915081905092915050565b6000602082019050611fb36000830184611ba9565b92915050565b6000606082019050611fce6000830186611ba9565b611fdb6020830185611ba9565b611fe86040830184611f61565b949350505050565b60006020820190506120056000830184611bb8565b92915050565b60006020820190506120206000830184611bf8565b92915050565b600060208201905081810360008301526120408184611c40565b905092915050565b600060608201905081810360008301526120628186611c40565b90506120716020830185611f61565b61207e6040830184611f61565b949350505050565b6000602082019050818103600083015261209f81611caa565b9050919050565b600060208201905081810360008301526120bf81611d10565b9050919050565b600060208201905081810360008301526120df81611d76565b9050919050565b600060208201905081810360008301526120ff81611ddc565b9050919050565b6000602082019050818103600083015261211f81611e1c565b9050919050565b6000602082019050818103600083015261213f81611e5c565b9050919050565b6000602082019050818103600083015261215f81611ec2565b9050919050565b600060208201905081810360008301526121808184611f02565b905092915050565b600060208201905061219d6000830184611f61565b92915050565b6000604051905081810181811067ffffffffffffffff821117156121ca576121c96124d4565b5b8060405250919050565b600067ffffffffffffffff8211156121ef576121ee6124d4565b5b601f19601f8301169050602081019050919050565b600081519050919050565b600081519050919050565b600081905092915050565b600082825260208201905092915050565b600082825260208201905092915050565b600081905092915050565b600061225d826123a5565b9150612268836123a5565b9250827fffffffffffffffffffffffffffffffffffffffffffffffffffffffffffffffff0382111561229d5761229c612447565b5b828201905092915050565b60006122b3826123a5565b91506122be836123a5565b9250826122ce576122cd612476565b5b828204905092915050565b60006122e4826123a5565b91506122ef836123a5565b9250817fffffffffffffffffffffffffffffffffffffffffffffffffffffffffffffffff048311821515161561232857612327612447565b5b828202905092915050565b600061233e826123a5565b9150612349836123a5565b92508282101561235c5761235b612447565b5b828203905092915050565b600061237282612385565b9050919050565b60008115159050919050565b600073ffffffffffffffffffffffffffffffffffffffff82169050919050565b6000819050919050565b60006123ba826123c1565b9050919050565b60006123cc82612385565b9050919050565b82818337600083830152505050565b60005b838110156124005780820151818401526020810190506123e5565b8381111561240f576000848401525b50505050565b6000600282049050600182168061242d57607f821691505b60208210811415612441576124406124a5565b5b50919050565b7f4e487b7100000000000000000000000000000000000000000000000000000000600052601160045260246000fd5b7f4e487b7100000000000000000000000000000000000000000000000000000000600052601260045260246000fd5b7f4e487b7100000000000000000000000000000000000000000000000000000000600052602260045260246000fd5b7f4e487b7100000000000000000000000000000000000000000000000000000000600052604160045260246000fd5b6000601f19601f8301169050919050565b61251d81612367565b811461252857600080fd5b50565b61253481612379565b811461253f57600080fd5b50565b61254b816123a5565b811461255657600080fd5b5056fea2646970667358221220fc924ac25ac77df4dbc5fb15605fe8ebe31262753f4d6f5f6b79c228ee32b82864736f6c63430008000033",
  "immutableReferences": {},
  "source": "// SPDX-License-Identifier: MIT\n\npragma solidity ^0.8.0;\n\nimport \"@openzeppelin/contracts/access/Ownable.sol\";\nimport \"@openzeppelin/contracts/utils/math/SafeMath.sol\";\nimport \"@openzeppelin/contracts/token/ERC20/IERC20.sol\";\nimport \"@openzeppelin/contracts/token/ERC20/utils/SafeERC20.sol\";\n\ncontract Game is Ownable {\n    using SafeERC20 for IERC20;\n    using SafeMath for uint256;\n\n    IERC20 public token;\n\n    uint256 private constant DAYS = 1 days;\n    uint256 private constant TIMEDEFAULT = 1647216000;\n\n    address private constant addressZero = address(0x00000000000);\n    address public treasuryAdmin;\n    uint256 priceOfLifes = 50000000;\n    uint256 priceOfSkills = 10000000;\n    uint256 private MAXLIFE = 5;\n\n    mapping(uint256 => uint256) Level; // Point in Level\n    mapping(uint256 => Skills) idSkills;\n    mapping(address => mapping(uint256 => uint256)) addressToBuyTimes;\n\n    Skills[] public SkillGame;\n\n    struct Skills {\n        string name;\n        uint256 price;\n        uint256 idSkill;\n    }\n\n    event playerBuySlots(uint256 indexed slots, address token);\n    event playerBuySkills(\n        uint256 indexed idSkill,\n        address indexed token,\n        uint256 level\n    );\n    event setAddressTokenCustomEvent(address indexed token);\n    event createSkillsEvent(\n        uint256 indexed idSkill,\n        string indexed name,\n        uint256 price\n    );\n    event changePointLevel(uint256 indexed level, uint256 amount);\n\n    constructor(address _treasuryAdmin, address _token) {\n        token = IERC20(_token);\n        treasuryAdmin = _treasuryAdmin;\n    }\n\n    modifier checkTime() {\n        uint256 daysTime;\n        daysTime = block.timestamp.sub(TIMEDEFAULT).div(DAYS);\n        require(\n            addressToBuyTimes[msg.sender][daysTime] <= MAXLIFE,\n            \"exceed the specified number of times\"\n        );\n        _;\n    }\n\n    function checkBalance() external view returns (uint256) {\n        return token.balanceOf(msg.sender);\n    }\n\n    function checkTimeBuyInDays(uint256 _days) public view returns (uint256) {\n        return addressToBuyTimes[msg.sender][_days];\n    }\n\n    function setAddressTokenCustom(address _token) external onlyOwner {\n        token = IERC20(_token);\n        emit setAddressTokenCustomEvent(_token);\n    }\n\n    function createSkills(\n        uint256 _idSkill,\n        string memory _name,\n        uint256 _price\n    ) external onlyOwner {\n        Skills memory _skill = Skills({\n            name: _name,\n            price: _price,\n            idSkill: _idSkill\n        });\n        SkillGame.push(_skill);\n        idSkills[_idSkill] = _skill;\n        emit createSkillsEvent(_idSkill, _name, _price);\n    }\n\n    function setPointLevel(uint256 _level, uint256 _point)\n        external\n        onlyOwner\n        returns (bool)\n    {\n        Level[_level] = _point;\n        emit changePointLevel(_level, _point);\n        return true;\n    }\n\n    //Buy slot using native Token\n    function buyLifesNative(uint256 _amountSlots)\n        external\n        payable\n        checkTime\n        returns (bool)\n    {\n        uint256 daysTime;\n        daysTime = block.timestamp.sub(TIMEDEFAULT).div(DAYS);\n        require(\n            msg.value >= _amountSlots.mul(priceOfLifes),\n            \"peoply not fund to buy\"\n        );\n\n        payable(treasuryAdmin).transfer(_amountSlots.mul(priceOfLifes));\n        addressToBuyTimes[msg.sender][daysTime] += _amountSlots;\n\n        emit playerBuySlots(_amountSlots, addressZero);\n        return true;\n    }\n\n    //Buy slots using Token ERC20,BEP20\n    function buyLifes(uint256 _amountSlots) external checkTime returns (bool) {\n        uint256 daysTime;\n        daysTime = block.timestamp.sub(TIMEDEFAULT).div(DAYS);\n\n        require(\n            token.balanceOf(msg.sender) >= _amountSlots.mul(priceOfLifes),\n            \"peoply not fund to buy\"\n        );\n        token.safeTransferFrom(\n            msg.sender,\n            treasuryAdmin,\n            _amountSlots.mul(priceOfLifes)\n        );\n\n        addressToBuyTimes[msg.sender][daysTime] += _amountSlots;\n\n        emit playerBuySlots(_amountSlots, address(token));\n        return true;\n    }\n\n    //Buy skills by Native Token\n    function buySkillsNative(uint256 _idSkill, uint256 _level)\n        external\n        payable\n        returns (Skills memory skills)\n    {\n        require(\n            msg.value >= idSkills[_idSkill].price,\n            \"peoply not fund to buy\"\n        );\n        payable(treasuryAdmin).transfer(idSkills[_idSkill].price);\n\n        emit playerBuySkills(_idSkill, addressZero, _level);\n        return idSkills[_idSkill];\n    }\n\n    //Buy skills by Token custom\n\n    function buySkills(uint256 _idSkill, uint256 _level)\n        external\n        returns (bool)\n    {\n        // IERC20 tokenSkill = _token;\n\n        require(\n            token.balanceOf(msg.sender) >= idSkills[_idSkill].price,\n            \"peoply not fund to buy\"\n        );\n\n        token.safeTransferFrom(\n            msg.sender,\n            treasuryAdmin,\n            idSkills[_idSkill].price\n        );\n\n        emit playerBuySkills(_idSkill, address(token), _level);\n        return true;\n    }\n}\n",
  "sourcePath": "/home/biaaaa/Project/candy-contract/contract-token/contracts/Game.sol",
  "compiler": {
    "name": "solc",
    "version": "0.8.0+commit.c7dfd78e.Emscripten.clang"
  },
  "schemaVersion": "3.4.5",
  "updatedAt": "2022-03-26T13:56:43.327Z",
  "devdoc": {
    "kind": "dev",
    "methods": {
      "owner()": {
        "details": "Returns the address of the current owner."
      },
      "renounceOwnership()": {
        "details": "Leaves the contract without owner. It will not be possible to call `onlyOwner` functions anymore. Can only be called by the current owner. NOTE: Renouncing ownership will leave the contract without an owner, thereby removing any functionality that is only available to the owner."
      },
      "transferOwnership(address)": {
        "details": "Transfers ownership of the contract to a new account (`newOwner`). Can only be called by the current owner."
      }
    },
    "version": 1
  },
  "userdoc": {
    "kind": "user",
    "methods": {},
    "version": 1
  }
}