{
  "contractName": "TreasuryAdmin",
  "abi": [
    {
      "inputs": [
        {
          "internalType": "address",
          "name": "_admin",
          "type": "address"
        }
      ],
      "stateMutability": "nonpayable",
      "type": "constructor"
    },
    {
      "anonymous": false,
      "inputs": [
        {
          "indexed": true,
          "internalType": "address",
          "name": "previousOwner",
          "type": "address"
        },
        {
          "indexed": true,
          "internalType": "address",
          "name": "newOwner",
          "type": "address"
        }
      ],
      "name": "OwnershipTransferred",
      "type": "event"
    },
    {
      "anonymous": false,
      "inputs": [
        {
          "indexed": false,
          "internalType": "uint256",
          "name": "amount",
          "type": "uint256"
        },
        {
          "indexed": true,
          "internalType": "address",
          "name": "token",
          "type": "address"
        }
      ],
      "name": "withdrawEvent",
      "type": "event"
    },
    {
      "inputs": [],
      "name": "admin",
      "outputs": [
        {
          "internalType": "address",
          "name": "",
          "type": "address"
        }
      ],
      "stateMutability": "view",
      "type": "function"
    },
    {
      "inputs": [],
      "name": "owner",
      "outputs": [
        {
          "internalType": "address",
          "name": "",
          "type": "address"
        }
      ],
      "stateMutability": "view",
      "type": "function"
    },
    {
      "inputs": [],
      "name": "renounceOwnership",
      "outputs": [],
      "stateMutability": "nonpayable",
      "type": "function"
    },
    {
      "inputs": [
        {
          "internalType": "address",
          "name": "newOwner",
          "type": "address"
        }
      ],
      "name": "transferOwnership",
      "outputs": [],
      "stateMutability": "nonpayable",
      "type": "function"
    },
    {
      "inputs": [
        {
          "internalType": "address",
          "name": "_token",
          "type": "address"
        }
      ],
      "name": "balanceOf",
      "outputs": [
        {
          "internalType": "uint256",
          "name": "",
          "type": "uint256"
        }
      ],
      "stateMutability": "view",
      "type": "function"
    },
    {
      "inputs": [
        {
          "internalType": "address",
          "name": "_admin",
          "type": "address"
        }
      ],
      "name": "setAdmin",
      "outputs": [
        {
          "internalType": "address",
          "name": "",
          "type": "address"
        }
      ],
      "stateMutability": "nonpayable",
      "type": "function"
    },
    {
      "inputs": [
        {
          "internalType": "uint256",
          "name": "_amount",
          "type": "uint256"
        }
      ],
      "name": "withdraw",
      "outputs": [
        {
          "internalType": "bool",
          "name": "",
          "type": "bool"
        }
      ],
      "stateMutability": "payable",
      "type": "function"
    },
    {
      "inputs": [
        {
          "internalType": "address",
          "name": "_token",
          "type": "address"
        },
        {
          "internalType": "uint256",
          "name": "_amount",
          "type": "uint256"
        }
      ],
      "name": "withdraw",
      "outputs": [
        {
          "internalType": "bool",
          "name": "",
          "type": "bool"
        }
      ],
      "stateMutability": "nonpayable",
      "type": "function"
    }
  ],
  "bytecode": "0x60806040523480156200001157600080fd5b50604051620014cd380380620014cd833981810160405281019062000037919062000182565b620000576200004b6200009f60201b60201c565b620000a760201b60201c565b80600160006101000a81548173ffffffffffffffffffffffffffffffffffffffff021916908373ffffffffffffffffffffffffffffffffffffffff16021790555050620001fc565b600033905090565b60008060009054906101000a900473ffffffffffffffffffffffffffffffffffffffff169050816000806101000a81548173ffffffffffffffffffffffffffffffffffffffff021916908373ffffffffffffffffffffffffffffffffffffffff1602179055508173ffffffffffffffffffffffffffffffffffffffff168173ffffffffffffffffffffffffffffffffffffffff167f8be0079c531659141344cd1fd0a4f28419497f9722a3daafe3b4186f6b6457e060405160405180910390a35050565b6000815190506200017c81620001e2565b92915050565b6000602082840312156200019557600080fd5b6000620001a5848285016200016b565b91505092915050565b6000620001bb82620001c2565b9050919050565b600073ffffffffffffffffffffffffffffffffffffffff82169050919050565b620001ed81620001ae565b8114620001f957600080fd5b50565b6112c1806200020c6000396000f3fe60806040526004361061007b5760003560e01c80638da5cb5b1161004e5780638da5cb5b14610141578063f2fde38b1461016c578063f3fef3a314610195578063f851a440146101d25761007b565b80632e1a7d4d14610080578063704b6c02146100b057806370a08231146100ed578063715018a61461012a575b600080fd5b61009a60048036038101906100959190610d9a565b6101fd565b6040516100a79190611090565b60405180910390f35b3480156100bc57600080fd5b506100d760048036038101906100d29190610d0c565b610349565b6040516100e4919061104c565b60405180910390f35b3480156100f957600080fd5b50610114600480360381019061010f9190610d0c565b610432565b604051610121919061116d565b60405180910390f35b34801561013657600080fd5b5061013f610540565b005b34801561014d57600080fd5b506101566105c8565b604051610163919061104c565b60405180910390f35b34801561017857600080fd5b50610193600480360381019061018e9190610d0c565b6105f1565b005b3480156101a157600080fd5b506101bc60048036038101906101b79190610d35565b6106e9565b6040516101c99190611090565b60405180910390f35b3480156101de57600080fd5b506101e76108a7565b6040516101f4919061104c565b60405180910390f35b60006102076108cd565b73ffffffffffffffffffffffffffffffffffffffff166102256105c8565b73ffffffffffffffffffffffffffffffffffffffff161461027b576040517f08c379a00000000000000000000000000000000000000000000000000000000081526004016102729061110d565b60405180910390fd5b4782111561028857600080fd5b600160009054906101000a900473ffffffffffffffffffffffffffffffffffffffff1673ffffffffffffffffffffffffffffffffffffffff166108fc839081150290604051600060405180830381858888f193505050501580156102f0573d6000803e3d6000fd5b50600073ffffffffffffffffffffffffffffffffffffffff167f6ac2bdaed9762eb73e7016156d82378a57db76cdbf5e0a67b53c371cdf2e2c8e83604051610338919061116d565b60405180910390a260019050919050565b60006103536108cd565b73ffffffffffffffffffffffffffffffffffffffff166103716105c8565b73ffffffffffffffffffffffffffffffffffffffff16146103c7576040517f08c379a00000000000000000000000000000000000000000000000000000000081526004016103be9061110d565b60405180910390fd5b81600160006101000a81548173ffffffffffffffffffffffffffffffffffffffff021916908373ffffffffffffffffffffffffffffffffffffffff160217905550600160009054906101000a900473ffffffffffffffffffffffffffffffffffffffff169050919050565b600061043c6108cd565b73ffffffffffffffffffffffffffffffffffffffff1661045a6105c8565b73ffffffffffffffffffffffffffffffffffffffff16146104b0576040517f08c379a00000000000000000000000000000000000000000000000000000000081526004016104a79061110d565b60405180910390fd5b8173ffffffffffffffffffffffffffffffffffffffff166370a08231306040518263ffffffff1660e01b81526004016104e9919061104c565b60206040518083038186803b15801561050157600080fd5b505afa158015610515573d6000803e3d6000fd5b505050506040513d601f19601f820116820180604052508101906105399190610dc3565b9050919050565b6105486108cd565b73ffffffffffffffffffffffffffffffffffffffff166105666105c8565b73ffffffffffffffffffffffffffffffffffffffff16146105bc576040517f08c379a00000000000000000000000000000000000000000000000000000000081526004016105b39061110d565b60405180910390fd5b6105c660006108d5565b565b60008060009054906101000a900473ffffffffffffffffffffffffffffffffffffffff16905090565b6105f96108cd565b73ffffffffffffffffffffffffffffffffffffffff166106176105c8565b73ffffffffffffffffffffffffffffffffffffffff161461066d576040517f08c379a00000000000000000000000000000000000000000000000000000000081526004016106649061110d565b60405180910390fd5b600073ffffffffffffffffffffffffffffffffffffffff168173ffffffffffffffffffffffffffffffffffffffff1614156106dd576040517f08c379a00000000000000000000000000000000000000000000000000000000081526004016106d4906110cd565b60405180910390fd5b6106e6816108d5565b50565b60006106f36108cd565b73ffffffffffffffffffffffffffffffffffffffff166107116105c8565b73ffffffffffffffffffffffffffffffffffffffff1614610767576040517f08c379a000000000000000000000000000000000000000000000000000000000815260040161075e9061110d565b60405180910390fd5b60008390508073ffffffffffffffffffffffffffffffffffffffff166370a08231306040518263ffffffff1660e01b81526004016107a5919061104c565b60206040518083038186803b1580156107bd57600080fd5b505afa1580156107d1573d6000803e3d6000fd5b505050506040513d601f19601f820116820180604052508101906107f59190610dc3565b83111561080157600080fd5b61084e600160009054906101000a900473ffffffffffffffffffffffffffffffffffffffff16848373ffffffffffffffffffffffffffffffffffffffff166109999092919063ffffffff16565b8073ffffffffffffffffffffffffffffffffffffffff167f6ac2bdaed9762eb73e7016156d82378a57db76cdbf5e0a67b53c371cdf2e2c8e84604051610894919061116d565b60405180910390a2600191505092915050565b600160009054906101000a900473ffffffffffffffffffffffffffffffffffffffff1681565b600033905090565b60008060009054906101000a900473ffffffffffffffffffffffffffffffffffffffff169050816000806101000a81548173ffffffffffffffffffffffffffffffffffffffff021916908373ffffffffffffffffffffffffffffffffffffffff1602179055508173ffffffffffffffffffffffffffffffffffffffff168173ffffffffffffffffffffffffffffffffffffffff167f8be0079c531659141344cd1fd0a4f28419497f9722a3daafe3b4186f6b6457e060405160405180910390a35050565b610a1a8363a9059cbb60e01b84846040516024016109b8929190611067565b604051602081830303815290604052907bffffffffffffffffffffffffffffffffffffffffffffffffffffffff19166020820180517bffffffffffffffffffffffffffffffffffffffffffffffffffffffff8381831617835250505050610a1f565b505050565b6000610a81826040518060400160405280602081526020017f5361666545524332303a206c6f772d6c6576656c2063616c6c206661696c65648152508573ffffffffffffffffffffffffffffffffffffffff16610ae69092919063ffffffff16565b9050600081511115610ae15780806020019051810190610aa19190610d71565b610ae0576040517f08c379a0000000000000000000000000000000000000000000000000000000008152600401610ad79061114d565b60405180910390fd5b5b505050565b6060610af58484600085610afe565b90509392505050565b606082471015610b43576040517f08c379a0000000000000000000000000000000000000000000000000000000008152600401610b3a906110ed565b60405180910390fd5b610b4c85610c12565b610b8b576040517f08c379a0000000000000000000000000000000000000000000000000000000008152600401610b829061112d565b60405180910390fd5b6000808673ffffffffffffffffffffffffffffffffffffffff168587604051610bb49190611035565b60006040518083038185875af1925050503d8060008114610bf1576040519150601f19603f3d011682016040523d82523d6000602084013e610bf6565b606091505b5091509150610c06828286610c51565b92505050949350505050565b6000808273ffffffffffffffffffffffffffffffffffffffff16803b806020016040519081016040528181526000908060200190933c51119050919050565b60608315610c6157829050610cb1565b600083511115610c745782518084602001fd5b816040517f08c379a0000000000000000000000000000000000000000000000000000000008152600401610ca891906110ab565b60405180910390fd5b9392505050565b600081359050610cc781611246565b92915050565b600081519050610cdc8161125d565b92915050565b600081359050610cf181611274565b92915050565b600081519050610d0681611274565b92915050565b600060208284031215610d1e57600080fd5b6000610d2c84828501610cb8565b91505092915050565b60008060408385031215610d4857600080fd5b6000610d5685828601610cb8565b9250506020610d6785828601610ce2565b9150509250929050565b600060208284031215610d8357600080fd5b6000610d9184828501610ccd565b91505092915050565b600060208284031215610dac57600080fd5b6000610dba84828501610ce2565b91505092915050565b600060208284031215610dd557600080fd5b6000610de384828501610cf7565b91505092915050565b610df5816111ba565b82525050565b610e04816111cc565b82525050565b6000610e1582611188565b610e1f818561119e565b9350610e2f818560208601611202565b80840191505092915050565b6000610e4682611193565b610e5081856111a9565b9350610e60818560208601611202565b610e6981611235565b840191505092915050565b6000610e816026836111a9565b91507f4f776e61626c653a206e6577206f776e657220697320746865207a65726f206160008301527f64647265737300000000000000000000000000000000000000000000000000006020830152604082019050919050565b6000610ee76026836111a9565b91507f416464726573733a20696e73756666696369656e742062616c616e636520666f60008301527f722063616c6c00000000000000000000000000000000000000000000000000006020830152604082019050919050565b6000610f4d6020836111a9565b91507f4f776e61626c653a2063616c6c6572206973206e6f7420746865206f776e65726000830152602082019050919050565b6000610f8d601d836111a9565b91507f416464726573733a2063616c6c20746f206e6f6e2d636f6e74726163740000006000830152602082019050919050565b6000610fcd602a836111a9565b91507f5361666545524332303a204552433230206f7065726174696f6e20646964206e60008301527f6f742073756363656564000000000000000000000000000000000000000000006020830152604082019050919050565b61102f816111f8565b82525050565b60006110418284610e0a565b915081905092915050565b60006020820190506110616000830184610dec565b92915050565b600060408201905061107c6000830185610dec565b6110896020830184611026565b9392505050565b60006020820190506110a56000830184610dfb565b92915050565b600060208201905081810360008301526110c58184610e3b565b905092915050565b600060208201905081810360008301526110e681610e74565b9050919050565b6000602082019050818103600083015261110681610eda565b9050919050565b6000602082019050818103600083015261112681610f40565b9050919050565b6000602082019050818103600083015261114681610f80565b9050919050565b6000602082019050818103600083015261116681610fc0565b9050919050565b60006020820190506111826000830184611026565b92915050565b600081519050919050565b600081519050919050565b600081905092915050565b600082825260208201905092915050565b60006111c5826111d8565b9050919050565b60008115159050919050565b600073ffffffffffffffffffffffffffffffffffffffff82169050919050565b6000819050919050565b60005b83811015611220578082015181840152602081019050611205565b8381111561122f576000848401525b50505050565b6000601f19601f8301169050919050565b61124f816111ba565b811461125a57600080fd5b50565b611266816111cc565b811461127157600080fd5b50565b61127d816111f8565b811461128857600080fd5b5056fea2646970667358221220c9a12371fd719854f071ff4f564c503ae78a6be09aee30088038d29cf631514a64736f6c63430008000033",
  "immutableReferences": {},
  "source": "// SPDX-License-Identifier: MIT\n\npragma solidity ^0.8.0;\n\nimport \"@openzeppelin/contracts/access/Ownable.sol\";\nimport \"@openzeppelin/contracts/utils/math/SafeMath.sol\";\nimport \"@openzeppelin/contracts/token/ERC20/IERC20.sol\";\nimport \"@openzeppelin/contracts/token/ERC20/utils/SafeERC20.sol\";\n\ncontract TreasuryAdmin is Ownable {\n    using SafeERC20 for IERC20;\n\n    address private constant addressZero = address(0x00000000000);\n    address public admin;\n\n    event withdrawEvent(uint256 amount, address indexed token);\n\n    constructor(address _admin) {\n        admin = _admin;\n    }\n\n    function balanceOf(address _token)\n        external\n        view\n        onlyOwner\n        returns (uint256)\n    {\n        return IERC20(_token).balanceOf(address(this));\n    }\n\n    function setAdmin(address _admin) external onlyOwner returns (address) {\n        admin = _admin;\n        return admin;\n    }\n\n    function withdraw(uint256 _amount)\n        external\n        payable\n        onlyOwner\n        returns (bool)\n    {\n        require(_amount <= address(this).balance);\n        payable(admin).transfer(_amount);\n        emit withdrawEvent(_amount, addressZero);\n        return true;\n    }\n\n    function withdraw(address _token, uint256 _amount)\n        external\n        onlyOwner\n        returns (bool)\n    {\n        IERC20 token = IERC20(_token);\n        require(_amount <= token.balanceOf(address(this)));\n        token.safeTransfer(admin, _amount);\n        emit withdrawEvent(_amount, address(token));\n        return true;\n    }\n}\n",
  "sourcePath": "/home/biaaaa/Project/candy-contract/contract-token/contracts/TreasuryAdmin.sol",
  "compiler": {
    "name": "solc",
    "version": "0.8.0+commit.c7dfd78e.Emscripten.clang"
  },
  "schemaVersion": "3.4.5",
  "updatedAt": "2022-03-15T10:30:52.920Z",
  "devdoc": {
    "kind": "dev",
    "methods": {
      "owner()": {
        "details": "Returns the address of the current owner."
      },
      "renounceOwnership()": {
        "details": "Leaves the contract without owner. It will not be possible to call `onlyOwner` functions anymore. Can only be called by the current owner. NOTE: Renouncing ownership will leave the contract without an owner, thereby removing any functionality that is only available to the owner."
      },
      "transferOwnership(address)": {
        "details": "Transfers ownership of the contract to a new account (`newOwner`). Can only be called by the current owner."
      }
    },
    "version": 1
  },
  "userdoc": {
    "kind": "user",
    "methods": {},
    "version": 1
  }
}