{
  "contractName": "Treasury",
  "abi": [
    {
      "inputs": [
        {
          "internalType": "address",
          "name": "_admin",
          "type": "address"
        },
        {
          "internalType": "address",
          "name": "_treasuryAdmin",
          "type": "address"
        },
        {
          "internalType": "address",
          "name": "_token",
          "type": "address"
        },
        {
          "internalType": "uint256",
          "name": "_minimumValue",
          "type": "uint256"
        },
        {
          "internalType": "uint256",
          "name": "_depreciationRate",
          "type": "uint256"
        }
      ],
      "stateMutability": "nonpayable",
      "type": "constructor"
    },
    {
      "anonymous": false,
      "inputs": [
        {
          "indexed": true,
          "internalType": "address",
          "name": "previousOwner",
          "type": "address"
        },
        {
          "indexed": true,
          "internalType": "address",
          "name": "newOwner",
          "type": "address"
        }
      ],
      "name": "OwnershipTransferred",
      "type": "event"
    },
    {
      "anonymous": false,
      "inputs": [
        {
          "indexed": true,
          "internalType": "uint256",
          "name": "depreciationRate",
          "type": "uint256"
        }
      ],
      "name": "changeDepreciationRate",
      "type": "event"
    },
    {
      "anonymous": false,
      "inputs": [
        {
          "indexed": true,
          "internalType": "uint256",
          "name": "minimumValue",
          "type": "uint256"
        }
      ],
      "name": "changeMinimumValue",
      "type": "event"
    },
    {
      "anonymous": false,
      "inputs": [
        {
          "indexed": false,
          "internalType": "uint256",
          "name": "amount",
          "type": "uint256"
        },
        {
          "indexed": true,
          "internalType": "address",
          "name": "token",
          "type": "address"
        },
        {
          "indexed": true,
          "internalType": "address",
          "name": "user",
          "type": "address"
        }
      ],
      "name": "claimEvent",
      "type": "event"
    },
    {
      "anonymous": false,
      "inputs": [
        {
          "indexed": true,
          "internalType": "address",
          "name": "admin",
          "type": "address"
        },
        {
          "indexed": true,
          "internalType": "address",
          "name": "host",
          "type": "address"
        },
        {
          "indexed": false,
          "internalType": "uint256",
          "name": "amount",
          "type": "uint256"
        }
      ],
      "name": "userBuyDigger",
      "type": "event"
    },
    {
      "inputs": [],
      "name": "balanceOfAdmin",
      "outputs": [
        {
          "internalType": "uint256",
          "name": "",
          "type": "uint256"
        }
      ],
      "stateMutability": "view",
      "type": "function"
    },
    {
      "inputs": [],
      "name": "balanceTokenOfAdmin",
      "outputs": [
        {
          "internalType": "uint256",
          "name": "",
          "type": "uint256"
        }
      ],
      "stateMutability": "view",
      "type": "function"
    },
    {
      "inputs": [],
      "name": "depreciationRate",
      "outputs": [
        {
          "internalType": "uint256",
          "name": "",
          "type": "uint256"
        }
      ],
      "stateMutability": "view",
      "type": "function"
    },
    {
      "inputs": [],
      "name": "minimumValue",
      "outputs": [
        {
          "internalType": "uint256",
          "name": "",
          "type": "uint256"
        }
      ],
      "stateMutability": "view",
      "type": "function"
    },
    {
      "inputs": [],
      "name": "owner",
      "outputs": [
        {
          "internalType": "address",
          "name": "",
          "type": "address"
        }
      ],
      "stateMutability": "view",
      "type": "function"
    },
    {
      "inputs": [],
      "name": "renounceOwnership",
      "outputs": [],
      "stateMutability": "nonpayable",
      "type": "function"
    },
    {
      "inputs": [
        {
          "internalType": "address",
          "name": "newOwner",
          "type": "address"
        }
      ],
      "name": "transferOwnership",
      "outputs": [],
      "stateMutability": "nonpayable",
      "type": "function"
    },
    {
      "inputs": [],
      "name": "treasuryAdmin",
      "outputs": [
        {
          "internalType": "address",
          "name": "",
          "type": "address"
        }
      ],
      "stateMutability": "view",
      "type": "function"
    },
    {
      "inputs": [],
      "name": "checkBalanceContract",
      "outputs": [
        {
          "internalType": "uint256",
          "name": "",
          "type": "uint256"
        }
      ],
      "stateMutability": "view",
      "type": "function"
    },
    {
      "inputs": [],
      "name": "buyDiggerNative",
      "outputs": [
        {
          "internalType": "bool",
          "name": "",
          "type": "bool"
        }
      ],
      "stateMutability": "payable",
      "type": "function"
    },
    {
      "inputs": [
        {
          "internalType": "uint256",
          "name": "_amount",
          "type": "uint256"
        }
      ],
      "name": "buyDigger",
      "outputs": [
        {
          "internalType": "bool",
          "name": "",
          "type": "bool"
        }
      ],
      "stateMutability": "payable",
      "type": "function"
    },
    {
      "inputs": [
        {
          "internalType": "uint256",
          "name": "_minimumValue",
          "type": "uint256"
        }
      ],
      "name": "setMinimumValue",
      "outputs": [],
      "stateMutability": "nonpayable",
      "type": "function"
    },
    {
      "inputs": [
        {
          "internalType": "uint256",
          "name": "_depreciationRate",
          "type": "uint256"
        }
      ],
      "name": "setDepreciationRate",
      "outputs": [],
      "stateMutability": "nonpayable",
      "type": "function"
    },
    {
      "inputs": [
        {
          "internalType": "uint256",
          "name": "_amount",
          "type": "uint256"
        },
        {
          "internalType": "address",
          "name": "user",
          "type": "address"
        }
      ],
      "name": "claim",
      "outputs": [
        {
          "internalType": "bool",
          "name": "",
          "type": "bool"
        }
      ],
      "stateMutability": "nonpayable",
      "type": "function"
    }
  ],
  "bytecode": "0x60806040526103e86005553480156200001757600080fd5b5060405162001eb438038062001eb483398181016040528101906200003d91906200023a565b6200005d620000516200014060201b60201c565b6200014860201b60201c565b6001808190555082600260006101000a81548173ffffffffffffffffffffffffffffffffffffffff021916908373ffffffffffffffffffffffffffffffffffffffff16021790555084600360006101000a81548173ffffffffffffffffffffffffffffffffffffffff021916908373ffffffffffffffffffffffffffffffffffffffff16021790555083600860006101000a81548173ffffffffffffffffffffffffffffffffffffffff021916908373ffffffffffffffffffffffffffffffffffffffff160217905550816005819055508060048190555050505050506200032e565b600033905090565b60008060009054906101000a900473ffffffffffffffffffffffffffffffffffffffff169050816000806101000a81548173ffffffffffffffffffffffffffffffffffffffff021916908373ffffffffffffffffffffffffffffffffffffffff1602179055508173ffffffffffffffffffffffffffffffffffffffff168173ffffffffffffffffffffffffffffffffffffffff167f8be0079c531659141344cd1fd0a4f28419497f9722a3daafe3b4186f6b6457e060405160405180910390a35050565b6000815190506200021d81620002fa565b92915050565b600081519050620002348162000314565b92915050565b600080600080600060a086880312156200025357600080fd5b600062000263888289016200020c565b955050602062000276888289016200020c565b945050604062000289888289016200020c565b93505060606200029c8882890162000223565b9250506080620002af8882890162000223565b9150509295509295909350565b6000620002c982620002d0565b9050919050565b600073ffffffffffffffffffffffffffffffffffffffff82169050919050565b6000819050919050565b6200030581620002bc565b81146200031157600080fd5b50565b6200031f81620002f0565b81146200032b57600080fd5b50565b611b76806200033e6000396000f3fe6080604052600436106100dd5760003560e01c8063cfec010c1161007f578063e89c7d1911610059578063e89c7d191461028c578063ead8278c146102b5578063eec84847146102e5578063f2fde38b14610303576100dd565b8063cfec010c146101f9578063ddd5e1b214610224578063e6ae44db14610261576100dd565b8063849aaf8e116100bb578063849aaf8e1461014f5780638da5cb5b1461017a5780638e547312146101a55780639ba95495146101d0576100dd565b8063715018a6146100e25780637b43adfb146100f9578063828a73a714610124575b600080fd5b3480156100ee57600080fd5b506100f761032c565b005b34801561010557600080fd5b5061010e6103b4565b60405161011b9190611969565b60405180910390f35b34801561013057600080fd5b506101396104e2565b6040516101469190611969565b60405180910390f35b34801561015b57600080fd5b506101646104e8565b6040516101719190611969565b60405180910390f35b34801561018657600080fd5b5061018f6104ee565b60405161019c91906117ba565b60405180910390f35b3480156101b157600080fd5b506101ba610517565b6040516101c79190611969565b60405180910390f35b3480156101dc57600080fd5b506101f760048036038101906101f291906113a6565b61051d565b005b34801561020557600080fd5b5061020e6105d0565b60405161021b91906117ba565b60405180910390f35b34801561023057600080fd5b5061024b600480360381019061024691906113f8565b6105f6565b604051610258919061180c565b60405180910390f35b34801561026d57600080fd5b50610276610974565b6040516102839190611969565b60405180910390f35b34801561029857600080fd5b506102b360048036038101906102ae91906113a6565b61097a565b005b6102cf60048036038101906102ca91906113a6565b610a2d565b6040516102dc919061180c565b60405180910390f35b6102ed610c8e565b6040516102fa919061180c565b60405180910390f35b34801561030f57600080fd5b5061032a60048036038101906103259190611354565b610e1a565b005b610334610f12565b73ffffffffffffffffffffffffffffffffffffffff166103526104ee565b73ffffffffffffffffffffffffffffffffffffffff16146103a8576040517f08c379a000000000000000000000000000000000000000000000000000000000815260040161039f906118a9565b60405180910390fd5b6103b26000610f1a565b565b60006103be610f12565b73ffffffffffffffffffffffffffffffffffffffff166103dc6104ee565b73ffffffffffffffffffffffffffffffffffffffff1614610432576040517f08c379a0000000000000000000000000000000000000000000000000000000008152600401610429906118a9565b60405180910390fd5b600260009054906101000a900473ffffffffffffffffffffffffffffffffffffffff1673ffffffffffffffffffffffffffffffffffffffff166370a08231306040518263ffffffff1660e01b815260040161048d91906117ba565b60206040518083038186803b1580156104a557600080fd5b505afa1580156104b9573d6000803e3d6000fd5b505050506040513d601f19601f820116820180604052508101906104dd91906113cf565b905090565b60065481565b60055481565b60008060009054906101000a900473ffffffffffffffffffffffffffffffffffffffff16905090565b60045481565b610525610f12565b73ffffffffffffffffffffffffffffffffffffffff166105436104ee565b73ffffffffffffffffffffffffffffffffffffffff1614610599576040517f08c379a0000000000000000000000000000000000000000000000000000000008152600401610590906118a9565b60405180910390fd5b80600581905550807fc3269673e31a7634108e56ed18564f1401bcb506cbbc810c25b1ccb5f79bb3bd60405160405180910390a250565b600860009054906101000a900473ffffffffffffffffffffffffffffffffffffffff1681565b600082600454600960003373ffffffffffffffffffffffffffffffffffffffff1673ffffffffffffffffffffffffffffffffffffffff16815260200190815260200160002054101561067d576040517f08c379a0000000000000000000000000000000000000000000000000000000008152600401610674906118c9565b60405180910390fd5b600260009054906101000a900473ffffffffffffffffffffffffffffffffffffffff1673ffffffffffffffffffffffffffffffffffffffff166370a08231306040518263ffffffff1660e01b81526004016106d891906117ba565b60206040518083038186803b1580156106f057600080fd5b505afa158015610704573d6000803e3d6000fd5b505050506040513d601f19601f8201168201806040525081019061072891906113cf565b81111561076a576040517f08c379a000000000000000000000000000000000000000000000000000000000815260040161076190611869565b60405180910390fd5b600260015414156107b0576040517f08c379a00000000000000000000000000000000000000000000000000000000081526004016107a790611949565b60405180910390fd5b60026001819055506107c0610f12565b73ffffffffffffffffffffffffffffffffffffffff166107de6104ee565b73ffffffffffffffffffffffffffffffffffffffff1614610834576040517f08c379a000000000000000000000000000000000000000000000000000000000815260040161082b906118a9565b60405180910390fd5b610883308486600260009054906101000a900473ffffffffffffffffffffffffffffffffffffffff1673ffffffffffffffffffffffffffffffffffffffff16610fde909392919063ffffffff16565b600454600960008573ffffffffffffffffffffffffffffffffffffffff1673ffffffffffffffffffffffffffffffffffffffff16815260200190815260200160002060008282546108d49190611a0c565b925050819055508273ffffffffffffffffffffffffffffffffffffffff16600260009054906101000a900473ffffffffffffffffffffffffffffffffffffffff1673ffffffffffffffffffffffffffffffffffffffff167f4dcc81181df43c959cbe045286454b8bf59d98cfbd98430149e240490f36bbcd8660405161095a9190611969565b60405180910390a360019150600180819055505092915050565b60075481565b610982610f12565b73ffffffffffffffffffffffffffffffffffffffff166109a06104ee565b73ffffffffffffffffffffffffffffffffffffffff16146109f6576040517f08c379a00000000000000000000000000000000000000000000000000000000081526004016109ed906118a9565b60405180910390fd5b80600481905550807f0f3c0bf69cc43c73d7cd746accc56332d6500cec9313445ccd7997c998ffc51f60405160405180910390a250565b6000600260009054906101000a900473ffffffffffffffffffffffffffffffffffffffff1673ffffffffffffffffffffffffffffffffffffffff166370a08231336040518263ffffffff1660e01b8152600401610a8a91906117ba565b60206040518083038186803b158015610aa257600080fd5b505afa158015610ab6573d6000803e3d6000fd5b505050506040513d601f19601f82011682018060405250810190610ada91906113cf565b6005541115610b1e576040517f08c379a0000000000000000000000000000000000000000000000000000000008152600401610b1590611909565b60405180910390fd5b610b8f33600860009054906101000a900473ffffffffffffffffffffffffffffffffffffffff1684600260009054906101000a900473ffffffffffffffffffffffffffffffffffffffff1673ffffffffffffffffffffffffffffffffffffffff16610fde909392919063ffffffff16565b8160076000828254610ba191906119b6565b9250508190555081600960003373ffffffffffffffffffffffffffffffffffffffff1673ffffffffffffffffffffffffffffffffffffffff1681526020019081526020016000206000828254610bf79190611a0c565b92505081905550600260009054906101000a900473ffffffffffffffffffffffffffffffffffffffff1673ffffffffffffffffffffffffffffffffffffffff163373ffffffffffffffffffffffffffffffffffffffff167f57d77f1257d29b410b3499ff8fe4834875f88cafd763bd5b112cbc6abdcf6a4784604051610c7d9190611969565b60405180910390a360019050919050565b6000346005541115610cd5576040517f08c379a0000000000000000000000000000000000000000000000000000000008152600401610ccc90611909565b60405180910390fd5b600860009054906101000a900473ffffffffffffffffffffffffffffffffffffffff1673ffffffffffffffffffffffffffffffffffffffff166108fc349081150290604051600060405180830381858888f19350505050158015610d3d573d6000803e3d6000fd5b503460066000828254610d5091906119b6565b9250508190555034600960003373ffffffffffffffffffffffffffffffffffffffff1673ffffffffffffffffffffffffffffffffffffffff1681526020019081526020016000206000828254610da69190611a0c565b92505081905550600073ffffffffffffffffffffffffffffffffffffffff163373ffffffffffffffffffffffffffffffffffffffff167f57d77f1257d29b410b3499ff8fe4834875f88cafd763bd5b112cbc6abdcf6a4734604051610e0b9190611969565b60405180910390a36001905090565b610e22610f12565b73ffffffffffffffffffffffffffffffffffffffff16610e406104ee565b73ffffffffffffffffffffffffffffffffffffffff1614610e96576040517f08c379a0000000000000000000000000000000000000000000000000000000008152600401610e8d906118a9565b60405180910390fd5b600073ffffffffffffffffffffffffffffffffffffffff168173ffffffffffffffffffffffffffffffffffffffff161415610f06576040517f08c379a0000000000000000000000000000000000000000000000000000000008152600401610efd90611849565b60405180910390fd5b610f0f81610f1a565b50565b600033905090565b60008060009054906101000a900473ffffffffffffffffffffffffffffffffffffffff169050816000806101000a81548173ffffffffffffffffffffffffffffffffffffffff021916908373ffffffffffffffffffffffffffffffffffffffff1602179055508173ffffffffffffffffffffffffffffffffffffffff168173ffffffffffffffffffffffffffffffffffffffff167f8be0079c531659141344cd1fd0a4f28419497f9722a3daafe3b4186f6b6457e060405160405180910390a35050565b611061846323b872dd60e01b858585604051602401610fff939291906117d5565b604051602081830303815290604052907bffffffffffffffffffffffffffffffffffffffffffffffffffffffff19166020820180517bffffffffffffffffffffffffffffffffffffffffffffffffffffffff8381831617835250505050611067565b50505050565b60006110c9826040518060400160405280602081526020017f5361666545524332303a206c6f772d6c6576656c2063616c6c206661696c65648152508573ffffffffffffffffffffffffffffffffffffffff1661112e9092919063ffffffff16565b905060008151111561112957808060200190518101906110e9919061137d565b611128576040517f08c379a000000000000000000000000000000000000000000000000000000000815260040161111f90611929565b60405180910390fd5b5b505050565b606061113d8484600085611146565b90509392505050565b60608247101561118b576040517f08c379a000000000000000000000000000000000000000000000000000000000815260040161118290611889565b60405180910390fd5b6111948561125a565b6111d3576040517f08c379a00000000000000000000000000000000000000000000000000000000081526004016111ca906118e9565b60405180910390fd5b6000808673ffffffffffffffffffffffffffffffffffffffff1685876040516111fc91906117a3565b60006040518083038185875af1925050503d8060008114611239576040519150601f19603f3d011682016040523d82523d6000602084013e61123e565b606091505b509150915061124e828286611299565b92505050949350505050565b6000808273ffffffffffffffffffffffffffffffffffffffff16803b806020016040519081016040528181526000908060200190933c51119050919050565b606083156112a9578290506112f9565b6000835111156112bc5782518084602001fd5b816040517f08c379a00000000000000000000000000000000000000000000000000000000081526004016112f09190611827565b60405180910390fd5b9392505050565b60008135905061130f81611afb565b92915050565b60008151905061132481611b12565b92915050565b60008135905061133981611b29565b92915050565b60008151905061134e81611b29565b92915050565b60006020828403121561136657600080fd5b600061137484828501611300565b91505092915050565b60006020828403121561138f57600080fd5b600061139d84828501611315565b91505092915050565b6000602082840312156113b857600080fd5b60006113c68482850161132a565b91505092915050565b6000602082840312156113e157600080fd5b60006113ef8482850161133f565b91505092915050565b6000806040838503121561140b57600080fd5b60006114198582860161132a565b925050602061142a85828601611300565b9150509250929050565b61143d81611a40565b82525050565b61144c81611a52565b82525050565b600061145d82611984565b611467818561199a565b9350611477818560208601611a88565b80840191505092915050565b600061148e8261198f565b61149881856119a5565b93506114a8818560208601611a88565b6114b181611aea565b840191505092915050565b60006114c96026836119a5565b91507f4f776e61626c653a206e6577206f776e657220697320746865207a65726f206160008301527f64647265737300000000000000000000000000000000000000000000000000006020830152604082019050919050565b600061152f6018836119a5565b91507f636f6e7472616374206e6f7420656e6f7567682066756e6400000000000000006000830152602082019050919050565b600061156f6026836119a5565b91507f416464726573733a20696e73756666696369656e742062616c616e636520666f60008301527f722063616c6c00000000000000000000000000000000000000000000000000006020830152604082019050919050565b60006115d56020836119a5565b91507f4f776e61626c653a2063616c6c6572206973206e6f7420746865206f776e65726000830152602082019050919050565b60006116156026836119a5565b91507f62616c616e6365206e6f74206d6f7265207468616e206465707265636961746960008301527f6f6e5261746500000000000000000000000000000000000000000000000000006020830152604082019050919050565b600061167b601d836119a5565b91507f416464726573733a2063616c6c20746f206e6f6e2d636f6e74726163740000006000830152602082019050919050565b60006116bb6015836119a5565b91507f62616c616e6365206973206e6f7420656e6f75676800000000000000000000006000830152602082019050919050565b60006116fb602a836119a5565b91507f5361666545524332303a204552433230206f7065726174696f6e20646964206e60008301527f6f742073756363656564000000000000000000000000000000000000000000006020830152604082019050919050565b6000611761601f836119a5565b91507f5265656e7472616e637947756172643a207265656e7472616e742063616c6c006000830152602082019050919050565b61179d81611a7e565b82525050565b60006117af8284611452565b915081905092915050565b60006020820190506117cf6000830184611434565b92915050565b60006060820190506117ea6000830186611434565b6117f76020830185611434565b6118046040830184611794565b949350505050565b60006020820190506118216000830184611443565b92915050565b600060208201905081810360008301526118418184611483565b905092915050565b60006020820190508181036000830152611862816114bc565b9050919050565b6000602082019050818103600083015261188281611522565b9050919050565b600060208201905081810360008301526118a281611562565b9050919050565b600060208201905081810360008301526118c2816115c8565b9050919050565b600060208201905081810360008301526118e281611608565b9050919050565b600060208201905081810360008301526119028161166e565b9050919050565b60006020820190508181036000830152611922816116ae565b9050919050565b60006020820190508181036000830152611942816116ee565b9050919050565b6000602082019050818103600083015261196281611754565b9050919050565b600060208201905061197e6000830184611794565b92915050565b600081519050919050565b600081519050919050565b600081905092915050565b600082825260208201905092915050565b60006119c182611a7e565b91506119cc83611a7e565b9250827fffffffffffffffffffffffffffffffffffffffffffffffffffffffffffffffff03821115611a0157611a00611abb565b5b828201905092915050565b6000611a1782611a7e565b9150611a2283611a7e565b925082821015611a3557611a34611abb565b5b828203905092915050565b6000611a4b82611a5e565b9050919050565b60008115159050919050565b600073ffffffffffffffffffffffffffffffffffffffff82169050919050565b6000819050919050565b60005b83811015611aa6578082015181840152602081019050611a8b565b83811115611ab5576000848401525b50505050565b7f4e487b7100000000000000000000000000000000000000000000000000000000600052601160045260246000fd5b6000601f19601f8301169050919050565b611b0481611a40565b8114611b0f57600080fd5b50565b611b1b81611a52565b8114611b2657600080fd5b50565b611b3281611a7e565b8114611b3d57600080fd5b5056fea2646970667358221220ac604870b33b8e6010364b3ff53734320ae691e5cb7342fb04e630850b19d05564736f6c63430008000033",
  "immutableReferences": {},
  "source": "// SPDX-License-Identifier: MIT\n\npragma solidity ^0.8.0;\n\nimport \"@openzeppelin/contracts/access/Ownable.sol\";\nimport \"@openzeppelin/contracts/utils/math/SafeMath.sol\";\nimport \"@openzeppelin/contracts/token/ERC20/IERC20.sol\";\nimport \"@openzeppelin/contracts/security/ReentrancyGuard.sol\";\nimport \"@openzeppelin/contracts/token/ERC20/utils/SafeERC20.sol\";\n\ncontract Treasury is Ownable, ReentrancyGuard {\n    using SafeERC20 for IERC20;\n    using SafeMath for uint256;\n\n    IERC20 private token;\n\n    address private constant addressZero = address(0x00000000000);\n\n    address admin;\n    uint256 public depreciationRate;\n    uint256 public minimumValue = 1000;\n    uint256 public balanceOfAdmin;\n    uint256 public balanceTokenOfAdmin;\n    address public treasuryAdmin;\n\n    mapping(address => uint256) private balanceOfUserDigger;\n\n    event userBuyDigger(\n        address indexed admin,\n        address indexed host,\n        uint256 amount\n    );\n    event changeDepreciationRate(uint256 indexed depreciationRate);\n    event changeMinimumValue(uint256 indexed minimumValue);\n    event claimEvent(\n        uint256 amount,\n        address indexed token,\n        address indexed user\n    );\n\n    constructor(\n        address _admin,\n        address _treasuryAdmin,\n        address _token,\n        uint256 _minimumValue,\n        uint256 _depreciationRate\n    ) {\n        token = IERC20(_token);\n        admin = _admin;\n        treasuryAdmin = _treasuryAdmin;\n        minimumValue = _minimumValue;\n        depreciationRate = _depreciationRate;\n    }\n\n    modifier checkbuyDigger(uint256 _amount) {\n        require(\n            balanceOfUserDigger[msg.sender] >= depreciationRate,\n            \"balance not more than depreciationRate\"\n        );\n        require(\n            _amount <= token.balanceOf(address(this)),\n            \"contract not enough fund\"\n        );\n        _;\n    }\n\n    function checkBalanceContract() external view onlyOwner returns (uint256) {\n        return token.balanceOf(address(this));\n    }\n\n    function buyDiggerNative() external payable returns (bool) {\n        require(minimumValue <= msg.value, \"balance is not enough\");\n        payable(treasuryAdmin).transfer(msg.value);\n        balanceOfAdmin += msg.value;\n        balanceOfUserDigger[msg.sender] -= msg.value;\n        emit userBuyDigger(msg.sender, addressZero, msg.value);\n        return true;\n    }\n\n    function buyDigger(uint256 _amount) external payable returns (bool) {\n        require(\n            minimumValue <= token.balanceOf(msg.sender),\n            \"balance is not enough\"\n        );\n        token.safeTransferFrom(msg.sender, treasuryAdmin, _amount);\n        balanceTokenOfAdmin += _amount;\n        balanceOfUserDigger[msg.sender] -= _amount;\n        emit userBuyDigger(msg.sender, address(token), _amount);\n        return true;\n    }\n\n    function setMinimumValue(uint256 _minimumValue) public onlyOwner {\n        minimumValue = _minimumValue;\n        emit changeMinimumValue(_minimumValue);\n    }\n\n    function setDepreciationRate(uint256 _depreciationRate) public onlyOwner {\n        depreciationRate = _depreciationRate;\n        emit changeDepreciationRate(_depreciationRate);\n    }\n\n    function claim(uint256 _amount, address user)\n        external\n        checkbuyDigger(_amount)\n        nonReentrant\n        onlyOwner\n        returns (bool)\n    {\n        token.safeTransferFrom(address(this), user, _amount);\n        balanceOfUserDigger[user] -= depreciationRate;\n        emit claimEvent(_amount, address(token), user);\n        return true;\n    }\n}\n",
  "sourcePath": "/home/biaaaa/Project/candy-contract/contract-token/contracts/Treasury.sol",
  "compiler": {
    "name": "solc",
    "version": "0.8.0+commit.c7dfd78e.Emscripten.clang"
  },
  "schemaVersion": "3.4.5",
  "updatedAt": "2022-03-15T10:30:52.912Z",
  "devdoc": {
    "kind": "dev",
    "methods": {
      "owner()": {
        "details": "Returns the address of the current owner."
      },
      "renounceOwnership()": {
        "details": "Leaves the contract without owner. It will not be possible to call `onlyOwner` functions anymore. Can only be called by the current owner. NOTE: Renouncing ownership will leave the contract without an owner, thereby removing any functionality that is only available to the owner."
      },
      "transferOwnership(address)": {
        "details": "Transfers ownership of the contract to a new account (`newOwner`). Can only be called by the current owner."
      }
    },
    "version": 1
  },
  "userdoc": {
    "kind": "user",
    "methods": {},
    "version": 1
  }
}